:100000000C9434000C9451000C9451000C94510049
:100010000C94AB010C9451000C9451000C945100C1
:100020000C9451000C9451000C9451000C9451000C
:100030000C9451000C9451000C94D5030C94510075
:100040000C9451000C9451000C9451000C945100EC
:100050000C9451000C9451000C9451000C945100DC
:100060000C9451000C94510011241FBECFEFD8E026
:10007000DEBFCDBF11E0A0E0B1E0EEEEFFE002C0D8
:1000800005900D92A839B107D9F711E0A8E9B1E0C0
:1000900001C01D92AE3DB107E1F70E9453000C94E0
:1000A000F5070C940000AF92BF92CF92DF92EF92CF
:1000B000FF920F931F93CF93DF930E940B030E9435
:1000C00092010E948F010E94D203789482E084BD45
:1000D00093E095BD80936E0089EF87BD80E091E04D
:1000E0000E940C05EE24FF248701AA24BB2465018D
:1000F000C3E3D1E08091980190919901A0919A0178
:10010000B0919B018E199F09A00BB10B4497A105DB
:10011000B1050CF441C08AE191E00E940C058CE924
:1001200091E00E9499022DB73EB72A5030400FB699
:10013000F8943EBF0FBE2DBFEDB7FEB73196ADB7F9
:10014000BEB71296DC93CE93119780919C01828367
:10015000138280919D018483158280919E01868304
:10016000178280919F01808711860E94F7042DB726
:100170003EB7265F3F4F0FB6F8943EBF0FBE2DBF70
:100180008CE991E00E94AA03E0909801F090990117
:1001900000919A0110919B01809198019091990191
:1001A000A0919A01B0919B01A6019501281B390BE2
:1001B0004A0B5B0B28323105410551050CF49ACFEF
:1001C00080EA91E00E9477038CEA91E00E943A0174
:1001D000A0909801B0909901C0909A01D0909B0195
:1001E00089CFCF92DF92EF92FF920F931F93FC0182
:1001F000408351836283738304831583268337830B
:10020000C086D186E286F3861F910F91FF90EF9012
:10021000DF90CF900895FF920F931F93CF93DF93BA
:100220008C01C0E0D0E00E94A404F801EC0FFD1F97
:1002300080832196C430D105B1F7E801FF240E94E4
:10024000A4048C83F394219684E0F816C1F7FF246C
:100250000E94A404F8018087F3940F5F1F4FF4E01D
:10026000FF16B1F70E94AF04DF91CF911F910F915C
:10027000FF9008950F931F938C0180E090E00E94FF
:1002800028048AEA0E947E048AEA0E947E048AEA9E
:100290000E947E048DE20E947E0484ED0E947E0412
:1002A000F80180810E947E04F80181810E947E0411
:1002B000F80182810E947E04F80183810E947E04FD
:1002C000F80184810E947E04F80185810E947E04E9
:1002D000F80186810E947E04F80187810E947E04D5
:1002E000F80180850E947E04F80181850E947E04C9
:1002F000F80182850E947E04F80183850E947E04B5
:100300008AEA0E947E048AEA0E947E048AEA0E94A7
:100310007E041F910F9108950E94B80408950E94D1
:1003200041040895E1E8F0E08081836080831092C9
:1003300085001092840087B1807F87B98FE088B9EB
:10034000E8E6F0E0808182608083ECE6F0E0808186
:100350008F60808308951F920F920FB60F92112421
:100360002F933F934F935F938F939F935091560199
:1003700086B18527482F80FF32C0209184003091BC
:1003800085003093C1012093C0018091C8019091F4
:10039000C9012817390748F480959095820F931F5B
:1003A0009093B9018093B80106C0281B390B309394
:1003B000B9012093B80180918400909185009093B9
:1003C000C9018093C80150FF0AC08091B801909183
:1003D000B9018F5991409093D1018093D00141FF91
:1003E00032C020918400309185003093C301209366
:1003F000C2018091CA019091CB012817390748F4B6
:1004000080959095820F931F9093BB018093BA01C2
:1004100006C0281B390B3093BB012093BA01809191
:100420008400909185009093CB018093CA0151FF85
:100430000AC08091BA019091BB018F59914090936D
:10044000D3018093D20142FF32C0209184003091C9
:1004500085003093C5012093C4018091CC01909117
:10046000CD012817390748F480959095820F931F86
:100470009093BD018093BC0106C0281B390B3093BB
:10048000BD012093BC0180918400909185009093E0
:10049000CD018093CC0152FF0AC08091BC019091A4
:1004A000BD018F5991409093D5018093D40143FFB2
:1004B00032C020918400309185003093C701209391
:1004C000C6018091CE019091CF012817390748F4D9
:1004D00080959095820F931F9093BF018093BE01EA
:1004E00006C0281B390B3093BF012093BE018091B9
:1004F0008400909185009093CF018093CE0153FFAB
:100500000AC08091BE019091BF018F599140909394
:10051000D7018093D60186B1809356019F918F9128
:100520005F914F913F912F910F900FBE0F901F90B1
:100530001895FC018091D0019091D1018083809128
:10054000D2019091D30181838091D4019091D50102
:1005500082838091D6019091D70183830895CF93B0
:10056000DF93FC0180819181A281B381EB018883BB
:100570009983AA83BB8384819581A681B7818C836B
:100580009D83AE83BF8380859185A285B385FB0162
:1005900080879187A287B387DF91CF910895CF930A
:1005A000DF93FC0180819181A281B381EB0188837B
:1005B0009983AA83BB8384819581A681B7818C832B
:1005C0009D83AE83BF8380859185A285B385FB0122
:1005D00080879187A287B387DF91CF9108951F937A
:1005E000182F8A3019F48DE00E94EF028091C0002C
:1005F00085FFFCCF1093C600212F332727FD3095B0
:10060000C9011F9108958091C00087FFFCCF8091A0
:10061000C60090E008951092C50087E68093C4005C
:1006200088E18093C10086E08093C2008AE891E06F
:100630009093DB018093DA019093DD018093DC01DC
:100640008CE791E09093D9018093D80108950F939E
:100650001F938C010E940F040E941604F8018083EE
:100660000E941604F80181830E941604F801828317
:100670000E941604F80183831F910F9108950F9330
:100680001F938C010E940F04F80180810E941104C5
:10069000F80181810E941104F80182810E941104F5
:1006A000F80183810E941104F80184810E941104E1
:1006B000F80185810E941104F80186810E941104CD
:1006C000F80187810E941104F80180850E941104BD
:1006D000F80181850E941104F80182850E941104AD
:1006E000F80183850E9411041F910F910895FF92D4
:1006F0000F931F93CF93DF938C018AE50E9411041F
:10070000C0E0D0E080E00E941D04F801EC0FFD1F66
:1007100080832196C430D105A9F7E801FF2480E049
:100720000E941D048C83F394219684E0F816B9F797
:10073000FF2480E00E941D04F8018087F3940F5F7E
:100740001F4FF4E0FF16A9F7DF91CF911F910F9192
:10075000FF9008950F931F938C0187E591E00E940D
:100760000C0583EC0E94110488EC90E00197F1F7EE
:10077000F80180810E941104F80181810E94110416
:10078000F80182810E941104F80183810E94110402
:100790008CE691E00E940C051F910F9108950E9434
:1007A000FF0308950E94FA0308951F920F920FB657
:1007B0000F9211248F939F93AF93BF9380919801D1
:1007C00090919901A0919A01B0919B010196A11D70
:1007D000B11D8093980190939901A0939A01B093D1
:1007E0009B01BF91AF919F918F910F900FBE0F9082
:1007F0001F9018958CE284B981E58CBD089580E145
:1008000084B980E48CBD8CB580688CBD78940895E3
:100810008CB580688CBD7894089578940895F89488
:1008200008958EBD0DB407FEFDCF08950DB407FEEB
:10083000FDCF8EB508958EB508958EBD0DB407FE1B
:10084000FDCF8EB5089552988AB1806B8AB908950C
:100850005F985C9840E020E030E097FF02C05D9A2E
:1008600001C05D985F9A220F331F4E9921605F98F7
:100870004F5F403119F0880F991FEFCF5C9AC90183
:10088000089552988AB1806B8AB988ED90E80E94E9
:10089000280489E392E80E94280480E496EA0E94F2
:1008A000280487E496EC0E94280480EA94E90E94D8
:1008B00028048CEA92EC0E94280481E89AEC0E94B9
:1008C000280484ED9EEC0E94280483E894EC0E94A6
:1008D000280480E598E90E94280487E19CEC0E94A6
:1008E000280480E090EE0E94280480E098EC0E94AA
:1008F000280480E490EC0E94280408954A99FECFD1
:1009000090E0805098440E942804089552988AB13B
:10091000806B8AB908955F985C9840E020E030E0F1
:1009200097FF02C05D9A01C05D985F9A220F331F46
:100930004E9921605F984F5F403119F0880F991FE1
:10094000EFCF5C9AC901089580E090E00E948B048B
:1009500097FFFACF80E090EB0E948B04089581E826
:100960009AEC0E948B0483E89AEC0E948B04089511
:1009700052988AB1806B8AB988ED90E80E948B0406
:1009800089E992E80E948B0480E496EA0E948B0435
:1009900087E496EC0E948B0480EA94E90E948B0421
:1009A0008CEA92EC0E948B0481E89AEC0E948B0402
:1009B00084ED9EEC0E948B0483E894EC0E948B04EF
:1009C00080E598E90E948B0487E19CEC0E948B04EF
:1009D00080E090EE0E948B0480E098EC0E948B04F3
:1009E00080E490EC0E948B040E94AF040895A0E084
:1009F000B0E0EDEFF4E00C94CE07FE013596619186
:100A000071918091DA019091DB01AF010E94410563
:100A10002096E2E00C94EA070F931F93CF93DF93A5
:100A20008C01E091DA01F091DB01838181FF21C02B
:100A3000C0E0D0E00DC0E091DA01F091DB0120854B
:100A40003185BF01F9010995892B11F0CFEFDFEF57
:100A5000F80181918F01882371F7E091DA01F0911B
:100A6000DB01208531858AE0BF01F9010995892BD9
:100A700011F0CFEFDFEFCE01DF91CF911F910F91FA
:100A80000895ABE0B0E0E7E4F5E00C94BE073C016C
:100A90002B015A01FC0117821682838181FD03C05C
:100AA0006FEF7FEFC6C19AE0892E1E010894211CCA
:100AB000311CF3012381F20123FD859123FF8191F4
:100AC0002F01882309F4B2C1853239F423FD8591C1
:100AD00023FF81912F01853229F490E0B3010E9418
:100AE0003407E7CF982FFF24EE249924FFE1FF1568
:100AF000D0F09B3269F09C3228F4903259F0933256
:100B000091F40EC09D3249F0903369F441E024C065
:100B100052E0F52A84E0F82A28C098E0F92A25C096
:100B2000E0E1FE2A22C0F7FC29C0892F80538A30D9
:100B300070F4F6FE05C0989C902C1124980E15C0F8
:100B4000E89CE02C1124E80EF0E2FF2A0EC09E3251
:100B500029F4F6FC6BC140E4F42A07C09C3619F472
:100B600050E8F52A02C0983649F4F20123FD959128
:100B700023FF91912F01992309F0B8CF892F855434
:100B8000833018F08052833038F444E050E0A40EF3
:100B9000B51E5FE359830FC0933631F0933779F078
:100BA000933509F056C020C0F5018081898342E069
:100BB00050E0A40EB51E610101E010E012C0F50185
:100BC000C080D180F6FC03C06FEF7FEF02C0692DBB
:100BD00070E042E050E0A40EB51EC6010E94290755
:100BE0008C015FE7F52214C0F501C080D180F6FCCE
:100BF00003C06FEF7FEF02C0692D70E042E050E06C
:100C0000A40EB51EC6010E941E078C0150E8F52AED
:100C1000F3FE07C01AC080E290E0B3010E943407DF
:100C2000EA948E2D90E008171907A8F30EC0F6017C
:100C3000F7FC8591F7FE81916F0190E0B3010E946E
:100C40003407E110EA94015010400115110579F7BD
:100C5000EAC0943611F0993669F5F7FE08C0F5013F
:100C6000208131814281538184E090E00AC0F50106
:100C7000808191819C01442737FD4095542F82E06B
:100C800090E0A80EB91E9FE6F92257FF09C05095C3
:100C90004095309521953F4F4F4F5F4FE0E8FE2A3A
:100CA000CA01B901A1012AE030E00E946007D82EF4
:100CB000D21840C0953729F41F2D1F7E2AE030E05E
:100CC0001DC01F2D197F9F3661F0903720F4983595
:100CD00009F0ACC00FC0903739F0983709F0A6C0C2
:100CE00004C028E030E00AC0106114FD146020E167
:100CF00030E004C014FD166020E132E017FF08C0A8
:100D0000F501608171818281938144E050E008C0E7
:100D1000F50180819181BC0180E090E042E050E0EB
:100D2000A40EB51EA1010E946007D82ED2188FE72D
:100D3000F82EF122F6FE0BC05EEFF522D91438F43E
:100D4000F4FE07C0F2FC05C08FEEF82202C01D2D94
:100D500001C0192DF4FE0DC0FE01ED0DF11D8081C5
:100D6000803319F499EEF92208C01F5FF2FE05C026
:100D700003C08F2D867809F01F5F0F2DF3FC14C080
:100D8000F0FE0FC01E1510F09D2C0BC09D2C9E0C6C
:100D9000911A1E2D06C080E290E0B3010E94340734
:100DA0001F5F1E15C0F304C01E1510F4E11A01C028
:100DB000EE2404FF0FC080E390E0B3010E943407EB
:100DC00002FF1DC001FD03C088E790E00EC088E56A
:100DD00090E00BC0802F867891F001FF02C08BE27B
:100DE00001C080E2F7FC8DE290E0B3010E9434077D
:100DF00006C080E390E0B3010E9434079A94D914AE
:100E0000C0F3DA94F101ED0DF11D808190E0B301A2
:100E10000E943407DD20A9F706C080E290E0B3010C
:100E20000E943407EA94EE20C1F743CEF3016681B5
:100E30007781CB012B96E2E10C94DA07FC01059057
:100E4000615070400110D8F7809590958E0F9F1FCC
:100E50000895FC016150704001900110D8F7809511
:100E600090958E0F9F1F08950F931F93CF93DF933D
:100E70008C01EB018B8181FF1BC082FF0DC02E8195
:100E80003F818C819D812817390764F4E881F981BD
:100E90000193F983E88306C0E885F985802F0995D9
:100EA000892B31F48E819F8101969F838E8302C0AE
:100EB0000FEF1FEFC801DF91CF911F910F910895A0
:100EC000FA01AA27283051F1203181F1E8946F937B
:100ED0006E7F6E5F7F4F8F4F9F4FAF4FB1E03ED021
:100EE000B4E03CD0670F781F891F9A1FA11D680FBF
:100EF000791F8A1F911DA11D6A0F711D811D911DF2
:100F0000A11D20D009F468943F912AE0269F112466
:100F10003019305D3193DEF6CF010895462F4770CA
:100F2000405D4193B3E00FD0C9F7F6CF462F4F7025
:100F3000405D4A3318F0495D31FD4052419302D083
:100F4000A9F7EACFB4E0A695979587957795679529
:100F5000BA95C9F700976105710508959B01AC0129
:100F60000A2E06945795479537952795BA95C9F750
:100F7000620F731F841F951FA01D08952F923F922B
:100F80004F925F926F927F928F929F92AF92BF9299
:100F9000CF92DF92EF92FF920F931F93CF93DF9345
:100FA000CDB7DEB7CA1BDB0B0FB6F894DEBF0FBEA2
:100FB000CDBF09942A88398848885F846E847D84EF
:100FC0008C849B84AA84B984C884DF80EE80FD80F1
:100FD0000C811B81AA81B981CE0FD11D0FB6F89467
:0E0FE000DEBF0FBECDBFED010895F894FFCF28
:100FEE005375636365737366756C6C7920696E698E
:100FFE007469616C697365642E0052656365697608
:10100E00696E672052432050574D20646174612EE3
:10101E002E2E0052656365697665642050574D200B
:10102E00646174613A2025642C2025642C2025648B
:10103E002C2025640A00FF53656E64696E6720528A
:10104E004320696E707574732E2E2E0053656E7468
:10105E0020524320696E707574732E0000000001DB
:10106E00000000000000030300000000000200006A
:08107E000000EF020000000079
:00000001FF
