:100000000C9456000C948C030C9473000C947300A5
:100010000C9473000C9473000C9473000C94730094
:100020000C9473000C949E020C9473000C94730057
:100030000C9473000C9473000C9473000C94730074
:100040000C9473000C9473000C9473000C94730064
:100050000C9473000C94DF000C9473000C947300E8
:100060000C9473000C9473000C9473000C94730044
:100070000C9473000C9473000C9473000C94730034
:100080000C9473000C9473000C9473000C94730024
:100090000C9473000C9473000C9473000C94730014
:1000A0000C9473000C9473000C94730011241FBE05
:1000B000CFEFDAE0DEBFCDBF11E0A0E0B1E0EEE3CC
:1000C000F1E102C005900D92A036B107D9F711E019
:1000D000A0E6B1E001C01D92A63AB107E1F70E9487
:1000E00075000C949D080C940000AF92BF92CF92C3
:1000F000DF92EF92FF920F931F930E9460020E9483
:100100007C020E949F040E940102789482E084BDD8
:1001100093E095BD80936E0089EF87BD80E091E00C
:100120000E94B405AA24BB246501EE24FF248701A4
:100130008091600190916101A0916201B091630191
:100140008A199B09AC09BD094497A105B10584F042
:1001500084E691E00E94EB0384E691E00E9458015E
:10016000A0906001B0906101C0906201D0906301E5
:100170008091600190916101A0916201B091630151
:100180008E199F09A00BB10B8897A105B10584F2C8
:1001900088E691E00E94740188E691E064E771E0EE
:1001A0000E94040284E791E00E944A04E09060010A
:1001B000F09061010091620110916301B9CF1F922B
:1001C0000F920FB60F9211248F939F93AF93BF930B
:1001D0008091600190916101A0916201B0916301F1
:1001E0000196A11DB11D8093600190936101A093C0
:1001F0006201B0936301BF91AF919F918F910F9076
:100200000FBE0F901F9018950F931F938C010E94A3
:1002100028050E942F05F80180830E942F05F80110
:1002200081830E942F05F80182830E942F05F80127
:1002300083830E9426051F910F9108950F931F93AA
:100240008C010E942805F80180810E942A05F8018E
:1002500081810E942A05F80182810E942A05F80105
:1002600083810E942A05F80184810E942A05F801F1
:1002700085810E942A05F80186810E942A05F801DD
:1002800087810E942A05F80180850E942A05F801CD
:1002900081850E942A05F80182850E942A05F801BD
:1002A00083850E942A050E9426051F910F910895BB
:1002B0000F931F938C0183EC0E942A058AE18A9593
:1002C000F1F7F80180810E942A05F80181810E94DE
:1002D0002A05F80182810E942A05F80183810E9483
:1002E0002A051F910F910895CF92DF92EF92FF920E
:1002F0000F931F93CF93DF937C018AE50E942A0519
:100300001AE1812F8A95F1F780E00E943605D70126
:100310008C93812F8A95F1F781E00E943605E701E1
:100320008983812F8A95F1F782E00E943605F701D3
:100330008283812F8A95F1F783E00E943605D701E9
:1003400013968C931A95F1F7670114E00AE1812F57
:100350000E9436058C83802F8A95F1F71F5F2196C6
:100360001830A9F70AE1812F0E943605E601888737
:10037000802F8A95F1F71F5F0894C11CD11C1C3097
:1003800091F7EDB7FEB73E970FB6F894FEBF0FBEDC
:10039000EDBF31968AE191E0ADB7BEB712969C935E
:1003A0008E931197E70188819981AA81BB8182830D
:1003B0009383A483B5838C819D81AE81BF81868325
:1003C0009783A087B18788859985AA85BB85828711
:1003D0009387A487B5870E949F05EDB7FEB73E9629
:1003E0000FB6F894FEBF0FBEEDBFDF91CF911F9106
:1003F0000F91FF90EF90DF90CF9008950E94180525
:1004000008950E9413050895CF93DF93FC01808126
:100410009181A281B381EB0188839983AA83BB83F5
:1004200084819581A681B7818C839D83AE83BF83B0
:1004300080859185A285B385FB0180879187A287FE
:10044000B387DF91CF910895CF93DF93FC01808133
:100450009181A281B381EB0188839983AA83BB83B5
:1004600084819581A681B7818C839D83AE83BF8370
:1004700080859185A285B385FB0180879187A287BE
:10048000B387DF91CF9108951F93182F8A3019F405
:100490008DE00E9444028091C80085FFFCCF10933C
:1004A000CE00212F332727FD3095C9011F910895D4
:1004B0008091C80087FFFCCF8091CE0090E0089526
:1004C0001092CD0080E18093CC0088E18093C90038
:1004D00086E08093CA008FE491E09093A30180931B
:1004E000A2019093A5018093A40181E491E09093EF
:1004F000A1018093A0010895E1E8F0E0808183608C
:100500008083109285001092840084B18F7884B922
:1005100080E785B9E8E6F0E0808181608083EBE6E2
:10052000F0E0808180678083509881E08BB9E9E6B4
:10053000F0E0808181608083E89A08951F920F9295
:100540000FB60F9211242F933F934F938F939F9346
:1005500090915D0183B18927482F84FF44C0809129
:1005600084009091850090938B0180938A01209163
:1005700092013091930180918A0190918B018217B1
:10058000930768F4809192019091930120918A01E0
:1005900030918B0180959095820F931F0AC08091B6
:1005A0008A0190918B012091920130919301821BDD
:1005B000930B9093830180938201809184009091AA
:1005C0008500909393018093920180915D0184FF57
:1005D0000AC080918201909183018F59914090933C
:1005E0009B0180939A0145FF44C0809184009091C3
:1005F000850090938D0180938C012091940130911E
:10060000950180918C0190918D018217930768F478
:10061000809194019091950120918C0130918D01F0
:1006200080959095820F931F0AC080918C019091C4
:100630008D012091940130919501821B930B909331
:10064000850180938401809184009091850090932E
:1006500095018093940180915D0185FF0AC080918E
:100660008401909185018F59914090939D018093D1
:100670009C0146FF44C08091840090918500909336
:100680008F0180938E012091960130919701809186
:100690008E0190918F018217930768F480919601E3
:1006A0009091970120918E0130918F0180959095C6
:1006B000820F931F0AC080918E0190918F0120912B
:1006C000960130919701821B930B90938701809341
:1006D000860180918400909185009093970180938A
:1006E000960180915D0186FF0AC0809186019091FC
:1006F00087018F59914090939F0180939E0183B110
:1007000080935D019F918F914F913F912F910F9019
:100710000FBE0F901F9018951F920F920FB60F9259
:1007200011242F933F938F939F9390915E0189B1F2
:10073000892780FF44C08091840090918500909328
:1007400089018093880120919001309191018091DD
:100750008801909189018217930768F48091900134
:100760009091910120918801309189018095909517
:10077000820F931F0AC08091880190918901209176
:10078000900130919101821B930B90938101809392
:1007900080018091840090918500909391018093D5
:1007A000900180915D0180FF0AC08091800190914D
:1007B00081018F599140909399018093980189B15B
:1007C00080935E019F918F913F912F910F900FBE6B
:1007D0000F901F901895FC018091980190919901BC
:1007E000808380919A0190919B01818380919C01EB
:1007F00090919D01828380919E0190919F018383BE
:100800000895CF92DF92EF92FF920F931F93FC0116
:1008100040835183628373830483158326833783E4
:10082000C086D186E286F3861F910F91FF90EF90EC
:10083000DF90CF900895FF920F931F93CF93DF9394
:100840008C01C0E0D0E00E94C004F801EC0FFD1F55
:1008500080832196C430D105B1F7E801FF240E94BE
:10086000C0048C83F394219684E0F816C1F7FF242A
:100870000E94C004F8018087F3940F5F1F4FF4E0DB
:10088000FF16B1F70E94CB04DF91CF911F910F911A
:10089000FF9008950F931F938C0180E090E00E94D9
:1008A00041058AEA0E9497058AEA0E9497058AEA2A
:1008B0000E9497058DE20E94970584ED0E9497059E
:1008C000F80180810E949705F80181810E949705B7
:1008D000F80182810E949705F80183810E949705A3
:1008E000F80184810E949705F80185810E9497058F
:1008F000F80186810E949705F80187810E9497057B
:10090000F80180850E949705F80181850E9497056E
:10091000F80182850E949705F80183850E9497055A
:100920008AEA0E9497058AEA0E9497058AEA0E944D
:1009300097051F910F9108950E94D40408950E9475
:100940005A05089552988AB1806B8AB908955F98C4
:100950005C9840E020E030E097FF02C05D9A01C063
:100960005D985F9A220F331F4E9921605F984F5F09
:10097000403119F0880F991FEFCF5C9AC901089593
:1009800080E090E00E94A70497FFFACF80E090EB10
:100990000E94A704089581E89AEC0E94A70483E8C6
:1009A0009AEC0E94A704089552988AB1806B8AB984
:1009B00088ED90E80E94A70489E992E80E94A704C4
:1009C00080E496EA0E94A70487E496EC0E94A704BC
:1009D00080EA94E90E94A7048CEA92EC0E94A704A2
:1009E00081E89AEC0E94A70484ED9EEC0E94A70483
:1009F00083E894EC0E94A70480E598E90E94A7048C
:100A000087E19CEC0E94A70480E090EE0E94A7047E
:100A100080E098EC0E94A70480E490EC0E94A70478
:100A20000E94CB04089586E084B981E58CBD0895C9
:100A300080E184B980E48CBD8CB580688CBD7894ED
:100A400008958CB580688CBD789408957894089545
:100A5000F89408958EBD0DB407FEFDCF08950DB432
:100A600007FEFDCF8EB508958EB508958EBD0DB4E9
:100A700007FEFDCF8EB50895849880B3806E80BB4D
:100A800008958F988D9840E020E030E097FF02C0F5
:100A90008E9A01C08E988F9A220F331F669921601B
:100AA0008F984F5F403119F0880F991FEFCF8D9AC3
:100AB000C9010895849880B3806E80BB88ED90E86A
:100AC0000E94410589E392E80E94410580E496EA8C
:100AD0000E94410587E496EC0E94410580EA94E972
:100AE0000E9441058CEA92EC0E94410581E89AEC53
:100AF0000E94410584ED9EEC0E94410583E894EC40
:100B00000E94410580E598E90E94410587E19CEC3F
:100B10000E94410580E090EE0E94410580E098EC43
:100B20000E94410580E490EC0E94410508957C9963
:100B3000FECF90E0805098440E9441050895A0E0C7
:100B4000B0E0E5EAF5E00C947608FE013596619197
:100B500071918091A2019091A301AF010E94E905DA
:100B60002096E2E00C9492080F931F93CF93DF93AB
:100B70008C01E091A201F091A301838181FF21C04A
:100B8000C0E0D0E00DC0E091A201F091A30120856A
:100B90003185BF01F9010995892B11F0CFEFDFEF06
:100BA000F80181918F01882371F7E091A201F09102
:100BB000A301208531858AE0BF01F9010995892BC0
:100BC00011F0CFEFDFEFCE01DF91CF911F910F91A9
:100BD0000895ABE0B0E0EFEEF5E00C9466083C0160
:100BE0002B015A01FC0117821682838181FD03C00B
:100BF0006FEF7FEFC6C19AE0892E1E010894211C79
:100C0000311CF3012381F20123FD859123FF8191A2
:100C10002F01882309F4B2C1853239F423FD85916F
:100C200023FF81912F01853229F490E0B3010E94C6
:100C3000DC07E7CF982FFF24EE249924FFE1FF156E
:100C4000D0F09B3269F09C3228F4903259F0933204
:100C500091F40EC09D3249F0903369F441E024C014
:100C600052E0F52A84E0F82A28C098E0F92A25C045
:100C7000E0E1FE2A22C0F7FC29C0892F80538A3088
:100C800070F4F6FE05C0989C902C1124980E15C0A7
:100C9000E89CE02C1124E80EF0E2FF2A0EC09E3200
:100CA00029F4F6FC6BC140E4F42A07C09C3619F421
:100CB00050E8F52A02C0983649F4F20123FD9591D7
:100CC00023FF91912F01992309F0B8CF892F8554E3
:100CD000833018F08052833038F444E050E0A40EA2
:100CE000B51E5FE359830FC0933631F0933779F027
:100CF000933509F056C020C0F5018081898342E018
:100D000050E0A40EB51E610101E010E012C0F50133
:100D1000C080D180F6FC03C06FEF7FEF02C0692D69
:100D200070E042E050E0A40EB51EC6010E94D1075B
:100D30008C015FE7F52214C0F501C080D180F6FC7C
:100D400003C06FEF7FEF02C0692D70E042E050E01A
:100D5000A40EB51EC6010E94C6078C0150E8F52AF4
:100D6000F3FE07C01AC080E290E0B3010E94DC07E6
:100D7000EA948E2D90E008171907A8F30EC0F6012B
:100D8000F7FC8591F7FE81916F0190E0B3010E941D
:100D9000DC07E110EA94015010400115110579F7C4
:100DA000EAC0943611F0993669F5F7FE08C0F501EE
:100DB000208131814281538184E090E00AC0F501B5
:100DC000808191819C01442737FD4095542F82E01A
:100DD00090E0A80EB91E9FE6F92257FF09C0509572
:100DE0004095309521953F4F4F4F5F4FE0E8FE2AE9
:100DF000CA01B901A1012AE030E00E940808D82EFA
:100E0000D21840C0953729F41F2D1F7E2AE030E00C
:100E10001DC01F2D197F9F3661F0903720F4983543
:100E200009F0ACC00FC0903739F0983709F0A6C070
:100E300004C028E030E00AC0106114FD146020E115
:100E400030E004C014FD166020E132E017FF08C056
:100E5000F501608171818281938144E050E008C096
:100E6000F50180819181BC0180E090E042E050E09A
:100E7000A40EB51EA1010E940808D82ED2188FE733
:100E8000F82EF122F6FE0BC05EEFF522D91438F4ED
:100E9000F4FE07C0F2FC05C08FEEF82202C01D2D43
:100EA00001C0192DF4FE0DC0FE01ED0DF11D808174
:100EB000803319F499EEF92208C01F5FF2FE05C0D5
:100EC00003C08F2D867809F01F5F0F2DF3FC14C02F
:100ED000F0FE0FC01E1510F09D2C0BC09D2C9E0C1B
:100EE000911A1E2D06C080E290E0B3010E94DC073B
:100EF0001F5F1E15C0F304C01E1510F4E11A01C0D7
:100F0000EE2404FF0FC080E390E0B3010E94DC07F1
:100F100002FF1DC001FD03C088E790E00EC088E518
:100F200090E00BC0802F867891F001FF02C08BE229
:100F300001C080E2F7FC8DE290E0B3010E94DC0783
:100F400006C080E390E0B3010E94DC079A94D914B4
:100F5000C0F3DA94F101ED0DF11D808190E0B30151
:100F60000E94DC07DD20A9F706C080E290E0B30113
:100F70000E94DC07EA94EE20C1F743CEF3016681BC
:100F80007781CB012B96E2E10C948208FC0105905D
:100F9000615070400110D8F7809590958E0F9F1F7B
:100FA0000895FC016150704001900110D8F78095C0
:100FB00090958E0F9F1F08950F931F93CF93DF93EC
:100FC0008C01EB018B8181FF1BC082FF0DC02E8144
:100FD0003F818C819D812817390764F4E881F9816C
:100FE0000193F983E88306C0E885F985802F099588
:100FF000892B31F48E819F8101969F838E8302C05D
:101000000FEF1FEFC801DF91CF911F910F9108954E
:10101000FA01AA27283051F1203181F1E8946F9329
:101020006E7F6E5F7F4F8F4F9F4FAF4FB1E03ED0CF
:10103000B4E03CD0670F781F891F9A1FA11D680F6D
:10104000791F8A1F911DA11D6A0F711D811D911DA0
:10105000A11D20D009F468943F912AE0269F112415
:101060003019305D3193DEF6CF010895462F477079
:10107000405D4193B3E00FD0C9F7F6CF462F4F70D4
:10108000405D4A3318F0495D31FD4052419302D032
:10109000A9F7EACFB4E0A6959795879577956795D8
:1010A000BA95C9F700976105710508959B01AC01D8
:1010B0000A2E06945795479537952795BA95C9F7FF
:1010C000620F731F841F951FA01D08952F923F92DA
:1010D0004F925F926F927F928F929F92AF92BF9248
:1010E000CF92DF92EF92FF920F931F93CF93DF93F4
:1010F000CDB7DEB7CA1BDB0B0FB6F894DEBF0FBE51
:10110000CDBF09942A88398848885F846E847D849D
:101110008C849B84AA84B984C884DF80EE80FD809F
:101120000C811B81AA81B981CE0FD11D0FB6F89415
:0E113000DEBF0FBECDBFED010895F894FFCFD6
:10113E005375636365737366756C6C7920696E693C
:10114E007469616C697365642E00526F6C6C3A2021
:10115E0025662C2050697463683A2025662C205928
:10116E0061772076656C6F636974793A2025660A1B
:10117E000000000001000000000000580200000006
:10118E0000000200000000440200000000FFFF000B
:00000001FF
