:100000000C94B5000C94D2000C94D2000C94D20045
:100010000C94F8010C94D2000C94D2000C94D200F1
:100020000C94D2000C94D2000C94D2000C94D20008
:100030000C94D2000C94D2000C9474040C94D20052
:100040000C94D2000C94D2000C94D2000C94D200E8
:100050000C94D2000C94D2000C94D2000C94D200D8
:100060000C94D2000C94D2006E616E00696E660032
:1000700000407A10F35A00A0724E18090010A5D45F
:10008000E80000E87648170000E40B54020000CABC
:100090009A3B000000E1F505000080969800000002
:1000A00040420F000000A086010000001027000061
:1000B0000000E803000000006400000000000A00E7
:1000C000000000000100000000002C76D888DC67EA
:1000D0004F0823DFC1DFAE59E1B1B796E5E3E45342
:1000E000C63AE651997696E8E6C28426EB898C9B5F
:1000F00062ED407C6FFCEFBC9C9F40F2BAA56FA5FF
:10010000F490055A2AF75C936B6CF9676DC11BFC80
:10011000E0E40D47FEF520E6B500D0ED902E03009B
:10012000943577050080841E080000204E0A0000E8
:1001300000C80C333333330F986E12831141EF8DA7
:100140002114893BE65516CFFEE6DB18D1844B38E7
:100150001BF77C1D901DA4BBE424203284725E2218
:100160008100C9F124ECA1E53D2711241FBECFEF8A
:10017000D8E0DEBFCDBF11E0A0E0B1E0E8E3F6E1FA
:1001800002C005900D92AE35B107D9F711E0AEE58A
:10019000B1E001C01D92A43AB107E1F70E94D4007A
:1001A0000C941A0B0C940000AF92BF92CF92DF9286
:1001B000EF92FF920F931F930E9458030E94DF015A
:1001C0000E94DC010E947104789482E084BD93E077
:1001D00095BD80936E0089EF87BD80E091E00E941D
:1001E000870AAA24BB246501EE24FF24870180919D
:1001F0005E0190915F01A0916001B09161018A1947
:100200009B09AC09BD094497A105B10584F082E6BC
:1002100091E00E94E60282E691E00E94C803A0906D
:100220005E01B0905F01C0906001D090610180914B
:100230005E0190915F01A0916001B09161018E1902
:100240009F09A00BB10B8897A105B10584F286E642
:1002500091E00E94E40386E691E062E771E00E948B
:10026000FC0282E791E00E948701E0905E01F0903D
:100270005F010091600110916101B9CFCF92DF92CF
:10028000EF92FF920F931F93FC014083518362838F
:1002900073830483158326833783C086D186E286E1
:1002A000F3861F910F91FF90EF90DF90CF9008950C
:1002B000FF920F931F93CF93DF938C01C0E0D0E0A8
:1002C0000E944705F801EC0FFD1F80832196C43082
:1002D000D105B1F7E801FF240E9447058C83F39410
:1002E000219684E0F816C1F7FF240E944705F80123
:1002F0008087F3940F5F1F4FF4E0FF16B1F70E9461
:100300005205DF91CF911F910F91FF9008950F93A8
:100310001F938C0180E090E00E94CB048AEA0E9447
:1003200021058AEA0E9421058AEA0E9421058DE2C0
:100330000E94210584ED0E942105F80180810E9420
:100340002105F80181810E942105F80182810E9426
:100350002105F80183810E942105F80184810E9412
:100360002105F80185810E942105F80186810E94FE
:100370002105F80187810E942105F80180850E94EE
:100380002105F80181850E942105F80182850E94DE
:100390002105F80183850E9421058AEA0E94210532
:1003A0008AEA0E9421058AEA0E9421051F910F9185
:1003B00008950E945B0508950E94E4040895E1E811
:1003C000F0E0808183608083109285001092840029
:1003D00087B1807F87B98FE088B9E8E6F0E0808157
:1003E00082608083ECE6F0E080818F6080830895F6
:1003F0001F920F920FB60F9211242F933F934F939A
:100400005F938F939F9350911A0186B18527482F50
:1004100080FF32C0209184003091850030938701A5
:100420002093860180918E0190918F0128173907C2
:1004300048F480959095820F931F90937F0180934D
:100440007E0106C0281B390B30937F0120937E016B
:10045000809184009091850090938F0180938E010C
:1004600050FF0AC080917E0190917F018F59914089
:10047000909397018093960141FF32C020918400B0
:1004800030918500309389012093880180919001FB
:10049000909191012817390748F480959095820F23
:1004A000931F909381018093800106C0281B390B14
:1004B0003093810120938001809184009091850088
:1004C000909391018093900151FF0AC08091800127
:1004D000909181018F599140909399018093980157
:1004E00042FF32C0209184003091850030938B010F
:1004F00020938A01809192019091930128173907E6
:1005000048F480959095820F931F90938301809378
:10051000820106C0281B390B30938301209382018E
:100520008091840090918500909393018093920133
:1005300052FF0AC080918201909183018F599140AE
:1005400090939B0180939A0143FF32C020918400D5
:100550003091850030938D0120938C01809194011E
:10056000909195012817390748F480959095820F4E
:10057000931F909385018093840106C0281B390B3B
:1005800030938501209384018091840090918500AF
:10059000909395018093940153FF0AC08091840148
:1005A000909185018F59914090939D0180939C017A
:1005B00086B180931A019F918F915F914F913F91E6
:1005C0002F910F900FBE0F901F901895FC018091F6
:1005D0009601909197018083809198019091990163
:1005E000818380919A0190919B01828380919C01EB
:1005F00090919D0183830895CF93DF93FC018081C7
:100600009181A281B381EB0188839983AA83BB8303
:1006100084819581A681B7818C839D83AE83BF83BE
:1006200080859185A285B385FB0180879187A2870C
:10063000B387DF91CF910895CF93DF93FC01808141
:100640009181A281B381EB0188839983AA83BB83C3
:1006500084819581A681B7818C839D83AE83BF837E
:1006600080859185A285B385FB0180879187A287CC
:10067000B387DF91CF9108951F93182F8A3019F413
:100680008DE00E943C038091C00085FFFCCF109359
:10069000C600212F332727FD3095C9011F910895EA
:1006A0008091C00087FFFCCF8091C60090E0089544
:1006B0001092C50080E18093C40088E18093C1005E
:1006C00086E08093C20080E591E09093A101809341
:1006D000A0019093A3018093A20182E491E0909302
:1006E0009F0180939E0108950F931F938C010E9498
:1006F000B0040E94B904F80180830E94B904F80193
:1007000081830E94B904F80182830E94B904F80130
:1007100083830E94AC041F910F9108950F931F9340
:100720008C010E94B004F80180810E94B404F80199
:1007300081810E94B404F80182810E94B404F8010E
:1007400083810E94B404F80184810E94B404F801FA
:1007500085810E94B404F80186810E94B404F801E6
:1007600087810E94B404F80180850E94B404F801D6
:1007700081850E94B404F80182850E94B404F801C6
:1007800083850E94B4040E94AC041F910F910895C8
:100790000F931F938C0183EC0E94B4048AE18A9525
:1007A000F1F7F80180810E94B404F80181810E9470
:1007B000B404F80182810E94B404F80183810E948C
:1007C000B4041F910F910895CF92DF92EF92FF92A0
:1007D0000F931F93CF93DF937C018AE50E94B404AB
:1007E0001AE1812F8A95F1F780E00E94C004D701B9
:1007F0008C93812F8A95F1F781E00E94C004E70174
:100800008983812F8A95F1F782E00E94C004F70165
:100810008283812F8A95F1F783E00E94C004D7017B
:1008200013968C931A95F1F7670114E00AE1812F72
:100830000E94C0048C83802F8A95F1F71F5F219658
:100840001830A9F70AE1812F0E94C004E6018887C9
:10085000802F8A95F1F71F5F0894C11CD11C1C30B2
:1008600091F7EDB7FEB73E970FB6F894FEBF0FBEF7
:10087000EDBF31968BE191E0ADB7BEB712969C9378
:100880008E931197E70188819981AA81BB81828328
:100890009383A483B5838C819D81AE81BF81868340
:1008A0009783A087B18788859985AA85BB8582872C
:1008B0009387A487B5870E94720AEDB7FEB73E966C
:1008C0000FB6F894FEBF0FBEEDBFDF91CF911F9121
:1008D0000F91FF90EF90DF90CF9008950E949E04BB
:1008E00008950E94990408951F920F920FB60F92D7
:1008F00011248F939F93AF93BF9380915E0190914A
:100900005F01A0916001B09161010196A11DB11D2F
:1009100080935E0190935F01A0936001B0936101A9
:10092000BF91AF919F918F910F900FBE0F901F902D
:1009300018958CE284B981E58CBD089580E184B975
:1009400080E48CBD8CB580688CBD789408958CB59E
:1009500080688CBD789408958CB580688CBD0895AE
:100960008CB58F778CBD08958EBD0DB407FEFDCF7D
:1009700008950DB407FEFDCF8EB508958EB5089588
:100980008EBD0DB407FEFDCF8EB5089552988AB185
:10099000806B8AB908955F985C9840E020E030E071
:1009A00097FF02C05D9A01C05D985F9A220F331FC6
:1009B0004E9921605F984F5F403119F0880F991F61
:1009C000EFCF5C9AC901089552988AB1806B8AB9B9
:1009D00088ED90E80E94CB0489E392E80E94CB0462
:1009E00080E496EA0E94CB0487E496EC0E94CB0454
:1009F00080EA94E90E94CB048CEA92EC0E94CB043A
:100A000081E89AEC0E94CB0484ED9EEC0E94CB041A
:100A100083E894EC0E94CB0480E598E90E94CB0423
:100A200087E19CEC0E94CB0480E090EE0E94CB0416
:100A300080E098EC0E94CB0480E490EC0E94CB0410
:100A400008954A99FECF90E0805098440E94CB04CC
:100A5000089552988AB1806B8AB908955F985C981E
:100A600040E020E030E097FF02C05D9A01C05D9851
:100A70005F9A220F331F4E9921605F984F5F40317C
:100A800019F0880F991FEFCF5C9AC901089580E093
:100A900090E00E942E0597FFFACF80E090EB0E9435
:100AA0002E05089581E89AEC0E942E0583E89AECC1
:100AB0000E942E05089552988AB1806B8AB988EDFC
:100AC00090E80E942E0589E992E80E942E0580E4B4
:100AD00096EA0E942E0587E496EC0E942E0580EA95
:100AE00094E90E942E058CEA92EC0E942E0581E882
:100AF0009AEC0E942E0584ED9EEC0E942E0583E860
:100B000094EC0E942E0580E598E90E942E0587E16D
:100B10009CEC0E942E0580E090EE0E942E0580E065
:100B200098EC0E942E0580E490EC0E942E050E9415
:100B300052050895A1E1B0E0E0EAF5E00C94210946
:100B40003C017F876E876A01FC01178216828381D0
:100B500081FD03C06FEF7FEF6FC39E012F5F3F4F9B
:100B6000398B288BF3012381EE85FF8523FD859149
:100B700023FF8191FF87EE87882309F45AC38532CA
:100B800051F4EE85FF8523FD859123FF8191FF8739
:100B9000EE87853229F490E0B3010E94460AE2CF45
:100BA000982F10E0882499241032B0F49B3269F019
:100BB0009C3228F4903251F0933271F40BC09D3284
:100BC00039F0903349F4116028C01260146025C0D8
:100BD000186023C0106121C017FD2AC0892F8053DF
:100BE0008A3078F416FF06C0FAE09F9E902C1124FC
:100BF000980E13C03AE0839E802C1124880E106258
:100C00000CC09E3221F416FD14C3106406C09C363D
:100C100011F4106802C0983659F4EE85FF8523FD63
:100C2000959123FF9191FF87EE87992309F0BCCF1F
:100C3000892F8554833020F4812F8061905E07C016
:100C4000892F8556833008F09FC1812F8F7E86FDC6
:100C500002C076E0972E6FE3F62EF822953619F44F
:100C6000F0E4FF2A07C0963619F420E8F22A02C001
:100C700091109A94F7FE0AC03BE3391518F45CE32F
:100C8000B52E02C0B92CB39427E009C047E049153E
:100C900020F4BB2447E0942EF7CF292DBB24C601B6
:100CA00004969D878C87F601608171818281938192
:100CB000AE014F5F5F4F0B2D0E9458096C010981F7
:100CC000202E332400FF04C003FD02C01DE209C032
:100CD000F1FE02C01BE205C0F2FC02C010E001C040
:100CE00010E2C1018C709070892BB9F1112311F4BD
:100CF00083E001C084E0881510F088240AC0881AB7
:100D0000F3FC07C080E290E0B3010E94460A8A9497
:100D1000C9F7112329F0812F90E0B3010E94460A00
:100D200023FE03C008E610E00EC00CE610E00BC086
:100D3000E114F10409F0805290E0B3010E94460AE8
:100D40000F5F1F4F05C0EF2CFF24F0E1EF22FF24BF
:100D5000F8018491882361F714C1F7FE12C0BC0C1E
:100D600024FE04C08A81813309F4BA941B141CF058
:100D7000BB24B3942DC0F8E0FB1550F538E0B32E3A
:100D800027C0F6FC25C0892D90E08C159D054CF000
:100D90002CEFC2162FEFD20624F030E8F32A01C060
:100DA0009A94992049F0E2E0F0E0EC0FFD1FE90D84
:100DB000F11D80818033A1F3F7FE0AC0B92CB394F2
:100DC000892D90E0C816D90614F0992401C09C180A
:100DD000F7FC03C025E030E009C01C141D041CF022
:100DE00021E030E003C096012F5F3F4F112311F047
:100DF0002F5F3F4F992029F0892D90E00196280F11
:100E0000391F882D90E02817390714F0882401C075
:100E1000821A4F2C5524C20189709070892B39F0A9
:100E200008C080E290E0B3010E94460A8A948820BC
:100E3000C1F7112329F0812F90E0B3010E94460AE7
:100E400043FE07C008C080E390E0B3010E94460A59
:100E50008A948820C1F7F7FE46C08601D7FE02C0FB
:100E600000E010E076010894E11CF11CE01AF10AA0
:100E700041E050E04C0F5D1FE40EF51E26014B18BB
:100E80005108892D90E0AA24BB24A81AB90A5FEF63
:100E90000F3F150729F48EE290E0B3010E94460A45
:100EA000C016D10634F0401651061CF4F7018081BB
:100EB00001C080E3015010400894E11CF11C0A15A8
:100EC0001B052CF090E0B3010E94460AE0CF0C1500
:100ED0001D0539F49A81963318F4953311F424FEE4
:100EE00081E390E04BC08A81813309F00F7E90E06E
:100EF000B3010E94460A9920A1F08EE290E0B3016E
:100F00000E94460A12E0E1E0F0E0EC0FFD1FE10F65
:100F1000F11D1F5F808190E0B3010E94460A9A9400
:100F200091F744FC03C085E690E002C085E490E0C0
:100F3000B3010E94460AD7FC05C0C114D10441F494
:100F400004FF06C0D094C194D108D3948DE201C0AF
:100F50008BE290E0B3010E94460A80E305C08F5FF8
:100F600026EF3FEFC20ED31E3AE0C316D104BCF702
:100F700090E0B3010E94460AC601C096B3010E94E8
:100F8000460ACC84DD8452C1933631F0933799F010
:100F9000933509F059C023C0F601808189835E0131
:100FA0000894A11CB11C22E030E0C20ED31E21E047
:100FB000E22EF12C12C0F601A080B18016FD03C014
:100FC0006FEF7FEF02C0692D70E022E030E0C20ECB
:100FD000D31EC5010E943B0A7C011F7713C0F60196
:100FE000A080B18016FD03C06FEF7FEF02C0692DB6
:100FF00070E022E030E0C20ED31EC5010E94300A2C
:101000007C01106813FF07C01BC080E290E0B301B1
:101010000E94460A8A94882D90E0E816F906A8F303
:101020000FC0F50117FD859117FF81915F0190E0D9
:10103000B3010E94460A81108A940894E108F108DD
:10104000E114F10471F7F2C0943611F0993689F584
:1010500017FF08C0F601208131814281538184E06D
:1010600090E00AC0F601808191819C01442737FD00
:101070004095542F82E090E0C80ED91E9FE6F92ECD
:10108000F12257FF09C050954095309521953F4F6B
:101090004F4F5F4F90E8F92ACA01B901AE014F5F87
:1010A0005F4F2AE030E00E94BC0AE82EE889EE1A81
:1010B00041C0953721F41F7E2AE030E01CC0197F23
:1010C0009F3661F0903720F4983509F0B2C00FC018
:1010D000903739F0983709F0ACC004C028E030E010
:1010E0000AC0106114FD146020E130E004C014FD5A
:1010F000166020E132E017FF08C0F60160817181BF
:101100008281938144E050E008C0F60180819181A2
:10111000BC0180E090E042E050E0C40ED51EAE017C
:101120004F5F5F4F0E94BC0AE82E5889E51A8FE78F
:10113000F82EF122F6FE0BC08EEFF822E91438F4F7
:10114000F4FE07C0F2FC05C09FEEF92202C01E2D7E
:1011500001C0192DF4FE0DC0FE01EE0DF11D8081C0
:10116000803319F4E9EEFE2208C01F5FF2FE05C0CD
:1011700003C08F2D867809F01F5F0F2DF3FC14C07C
:10118000F0FE0FC0181510F09E2C0BC09E2C980C72
:10119000911A182D06C080E290E0B3010E94460A21
:1011A0001F5F1815C0F304C0181510F4811A01C090
:1011B000882404FF0FC080E390E0B3010E94460A38
:1011C00002FF1DC001FD03C088E790E00EC088E566
:1011D00090E00BC0802F867891F001FF02C08BE277
:1011E00001C080E2F7FC8DE290E0B3010E94460A64
:1011F00006C080E390E0B3010E94460A9A94E91485
:10120000C0F3EA94E1E0F0E0EC0FFD1FEE0DF11DFC
:10121000808190E0B3010E94460AEE2091F706C05B
:1012200080E290E0B3010E94460A8A948820C1F7C8
:1012300099CCF30166817781CB016196E2E10C9450
:101240003D092F923F924F925F926F927F928F92C1
:101250009F92AF92BF92CF92DF92EF92FF920F9345
:101260001F93CF93DF93CDB7DEB7CA1BDB0B0FB64F
:10127000F894DEBF0FBECDBF09942A88398848880C
:101280005F846E847D848C849B84AA84B984C884A2
:10129000DF80EE80FD800C811B81AA81B981CE0F99
:1012A000D11D0FB6F894DEBF0FBECDBFED0108957E
:1012B000283008F027E03327DA01990F311D87FD28
:1012C000916000966105710539F432602E5F3D939F
:1012D00030E32A95E1F708959F3F30F0803871059B
:1012E000610509F03C5F3C5F3D93913008F08068F8
:1012F000911DDF93CF931F930F93FF92EF92192FBE
:10130000987F9695E92F96959695E90FFF27E653D6
:10131000FF4F99273327EE24FF24A701E70105900B
:101320000894079428F4360FE71EF81E491F511D34
:10133000660F771F881F991F0694A1F705900794E1
:1013400028F4E70EF81E491F561FC11D770F881F8E
:10135000991F661F0694A1F70590079428F4F80ECC
:10136000491F561FC71FD11D880F991F661F771F62
:101370000694A1F70590079420F4490F561FC71F44
:10138000D81F990F661F771F881F0694A9F78491AD
:101390001095177041F0D695C79557954795F794D6
:1013A000E7941A95C1F7E0E7F0E06894159015917D
:1013B00035916591959105907FE27395E118F10A59
:1013C000430B560BC90BD009C0F7E10CF11E431FAC
:1013D000561FC91FD01D7EF4703311F48A95E6CFD5
:1013E000E894015030F0080F0AF40027021708F4BF
:1013F000202F2395022F7A3328F079E37D932A95C5
:10140000E9F710C07D932A9589F60694979567951C
:10141000379517951794E118F10A430B560BC90B32
:10142000D00998F023957E9173957A3308F070E394
:101430007C932013B8F77E9170617D9330F0839593
:1014400071E37D9370E32A95E1F71124EF90FF900B
:101450000F911F91CF91DF91992787FD9095089566
:10146000FC010590615070400110D8F7809590956F
:101470008E0F9F1F0895FC01615070400190011074
:10148000D8F7809590958E0F9F1F08950F931F9307
:10149000CF93DF938C01EB018B8181FF1BC082FF17
:1014A0000DC02E813F818C819D812817390764F4FE
:1014B000E881F9810193F983E88306C0E885F9851D
:1014C000802F0995892B31F48E819F8101969F830E
:1014D0008E8302C00FEF1FEFC801DF91CF911F91E4
:1014E0000F910895A0E0B0E0E8E7FAE00C9431092C
:1014F000FE013596619171918091A0019091A101B9
:10150000AF010E949A052096E2E00C944D090F93DA
:101510001F93CF93DF938C01E091A001F091A10183
:10152000838181FF21C0C0E0D0E00DC0E091A00127
:10153000F091A10120853185BF01F9010995892B21
:1015400011F0CFEFDFEFF80181918F01882371F760
:10155000E091A001F091A101208531858AE0BF01D1
:10156000F9010995892B11F0CFEFDFEFCE01DF9163
:10157000CF911F910F910895FA01AA27283051F1B8
:10158000203181F1E8946F936E7F6E5F7F4F8F4FB4
:101590009F4FAF4FB1E03ED0B4E03CD0670F781F13
:1015A000891F9A1FA11D680F791F8A1F911DA11DF8
:1015B0006A0F711D811D911DA11D20D009F4689431
:1015C0003F912AE0269F11243019305D3193DEF6D9
:1015D000CF010895462F4770405D4193B3E00FD08F
:1015E000C9F7F6CF462F4F70405D4A3318F0495D7A
:1015F00031FD4052419302D0A9F7EACFB4E0A6955D
:101600009795879577956795BA95C9F7009761057E
:10161000710508959B01AC010A2E069457954795D4
:1016200037952795BA95C9F7620F731F841F951FC9
:08163000A01D0895F894FFCFFE
:101638005375636365737366756C6C7920696E693D
:101648007469616C697365642E00FF526F6C6C3A43
:101658002025662C2050697463683A2025662C2062
:101668005961772076656C6F636974793A202566CD
:101678000A00000000010000000000005003000004
:0E16880000000002000000003C030000000013
:00000001FF
