:100000000C9434000C9451000C9451000C94510049
:100010000C9477010C9451000C9451000C945100F5
:100020000C9451000C9451000C9451000C9451000C
:100030000C9451000C9451000C94F9030C94510051
:100040000C9451000C9451000C9451000C945100EC
:100050000C9451000C9451000C9451000C945100DC
:100060000C9451000C94510011241FBECFEFD8E026
:10007000DEBFCDBF11E0A0E0B1E0EEECF1E102C0E7
:1000800005900D92AE35B107D9F711E0AEE5B1E0BC
:1000900001C01D92A43AB107E1F70E9453000C94ED
:1000A000E5080C940000AF92BF92CF92DF92EF92DE
:1000B000FF920F931F930E94D7020E945E010E943D
:1000C0005B010E94F603789482E084BD93E095BDC5
:1000D00080936E0089EF87BD80E091E00E94330637
:1000E000AA24BB246501EE24FF24870180915E01D0
:1000F00090915F01A0916001B09161018A199B0903
:10010000AC09BD094497A105B10584F082E691E0F0
:100110000E94650282E691E00E944703A0905E0182
:10012000B0905F01C0906001D090610180915E014C
:1001300090915F01A0916001B09161018E199F09BA
:10014000A00BB10B8897A105B10584F286E691E07A
:100150000E94630386E691E062E771E00E947B0201
:1001600082E791E00E940601E0905E01F0905F015D
:100170000091600110916101B9CFCF92DF92EF92AF
:10018000FF920F931F93FC0140835183628373831B
:100190000483158326833783C086D186E286F3865F
:1001A0001F910F91FF90EF90DF90CF900895FF92F5
:1001B0000F931F93CF93DF938C01C0E0D0E00E9498
:1001C000C804F801EC0FFD1F80832196C430D105CF
:1001D000B1F7E801FF240E94C8048C83F3942196B0
:1001E00084E0F816C1F7FF240E94C804F801808754
:1001F000F3940F5F1F4FF4E0FF16B1F70E94D30492
:10020000DF91CF911F910F91FF9008950F931F934E
:100210008C0180E090E00E944C048AEA0E94A204D3
:100220008AEA0E94A2048AEA0E94A2048DE20E9445
:10023000A20484ED0E94A204F80180810E94A2041D
:10024000F80181810E94A204F80182810E94A20427
:10025000F80183810E94A204F80184810E94A20413
:10026000F80185810E94A204F80186810E94A204FF
:10027000F80187810E94A204F80180850E94A204EF
:10028000F80181850E94A204F80182850E94A204DF
:10029000F80183850E94A2048AEA0E94A2048AEAE5
:1002A0000E94A2048AEA0E94A2041F910F9108955D
:1002B0000E94DC0408950E9465040895E1E8F0E0DE
:1002C000808183608083109285001092840087B1C2
:1002D000807F87B98FE088B9E8E6F0E080818260AE
:1002E0008083ECE6F0E080818F60808308951F9228
:1002F0000F920FB60F9211242F933F934F935F935A
:100300008F939F9350911A0186B18527482F80FFC4
:1003100032C0209184003091850030938701209372
:10032000860180918E0190918F012817390748F43A
:1003300080959095820F931F90937F0180937E010B
:1003400006C0281B390B30937F0120937E018091DA
:1003500084009091850090938F0180938E0150FFCF
:100360000AC080917E0190917F018F5991409093B6
:1003700097018093960141FF32C020918400309113
:10038000850030938901209388018091900190919C
:1003900091012817390748F480959095820F931F93
:1003A000909381018093800106C0281B390B309304
:1003B0008101209380018091840090918500909329
:1003C00091018093900151FF0AC08091800190912A
:1003D00081018F599140909399018093980142FF38
:1003E00032C0209184003091850030938B0120939E
:1003F0008A0180919201909193012817390748F45E
:1004000080959095820F931F909383018093820132
:1004100006C0281B390B3093830120938201809101
:10042000840090918500909393018093920152FFF4
:100430000AC080918201909183018F5991409093DD
:100440009B0180939A0143FF32C020918400309138
:10045000850030938D0120938C01809194019091BF
:1004600095012817390748F480959095820F931FBE
:10047000909385018093840106C0281B390B30932B
:100480008501209384018091840090918500909350
:1004900095018093940153FF0AC08091840190914B
:1004A00085018F59914090939D0180939C0186B165
:1004B00080931A019F918F915F914F913F912F915E
:1004C0000F900FBE0F901F901895FC018091960120
:1004D00090919701808380919801909199018183F7
:1004E00080919A0190919B01828380919C019091CF
:1004F0009D0183830895CF93DF93FC0180819181D7
:10050000A281B381EB0188839983AA83BB83848111
:100510009581A681B7818C839D83AE83BF838085BF
:100520009185A285B385FB0180879187A287B387D8
:10053000DF91CF910895CF93DF93FC01808191816A
:10054000A281B381EB0188839983AA83BB838481D1
:100550009581A681B7818C839D83AE83BF8380857F
:100560009185A285B385FB0180879187A287B38798
:10057000DF91CF9108951F93182F8A3019F48DE0E1
:100580000E94BB028091C00085FFFCCF1093C60083
:10059000212F332727FD3095C9011F9108958091A0
:1005A000C00087FFFCCF8091C60090E008951092B4
:1005B000C50080E18093C40088E18093C10086E09B
:1005C0008093C20080E591E09093A1018093A00107
:1005D0009093A3018093A20182E491E090939F0104
:1005E00080939E0108950F931F938C010E94330402
:1005F0000E943A04F80180830E943A04F801818342
:100600000E943A04F80182830E943A04F80183832D
:100610000E9431041F910F9108950F931F938C0135
:100620000E943304F80180810E943504F801818121
:100630000E943504F80182810E943504F80183810B
:100640000E943504F80184810E943504F8018581F7
:100650000E943504F80186810E943504F8018781E3
:100660000E943504F80180850E943504F8018185D7
:100670000E943504F80182850E943504F8018385C3
:100680000E9435040E9431041F910F9108950F9329
:100690001F938C0183EC0E9435048AE18A95F1F75F
:1006A000F80180810E943504F80181810E9435049F
:1006B000F80182810E943504F80183810E9435048B
:1006C0001F910F910895CF92DF92EF92FF920F93B7
:1006D0001F93CF93DF937C018AE50E9435041AE1D2
:1006E000812F8A95F1F780E00E944104F701808311
:1006F000812F8A95F1F781E00E944104F7018183FF
:10070000812F8A95F1F782E00E944104F7018283EC
:10071000812F8A95F1F783E00E944104F7018383DA
:100720001A95F1F76701E70114E00AE1812F0E94B1
:1007300041048C83802F8A95F1F71F5F2196183032
:10074000A9F70AE1812F0E944104F6018087802FDA
:100750008A95F1F71F5F0894C11CD11C1C3091F7DA
:100760008DB79EB708970FB6F8949EBF0FBE8DBF8A
:100770000DB71EB70F5F1F4F8BE191E0EDB7FEB7CE
:1007800092838183F70160817181828193810E94CC
:100790001B05F80173836283F7016481758186818B
:1007A00097810E941B05F80175836483F7016085BA
:1007B0007185828593850E941B05F8017783668386
:1007C0000E941E068DB79EB708960FB6F8949EBF7E
:1007D0000FBE8DBFDF91CF911F910F91FF90EF90D2
:1007E000DF90CF9008950E94230408950E941E0474
:1007F00008951F920F920FB60F9211248F939F931B
:10080000AF93BF9380915E0190915F01A0916001D1
:10081000B09161010196A11DB11D80935E0190937D
:100820005F01A0936001B0936101BF91AF919F916F
:100830008F910F900FBE0F901F9018958CE284B986
:1008400081E58CBD089580E184B980E48CBD8CB5D0
:1008500080688CBD789408958CB580688CBD789440
:10086000089578940895F89408958EBD0DB407FE08
:10087000FDCF08950DB407FEFDCF8EB508958EB55A
:1008800008958EBD0DB407FEFDCF8EB50895529824
:100890008AB1806B8AB908955F985C9840E020E047
:1008A00030E097FF02C05D9A01C05D985F9A220F09
:1008B000331F4E9921605F984F5F403119F0880FC8
:1008C000991FEFCF5C9AC901089552988AB1806B45
:1008D0008AB988ED90E80E944C0489E392E80E946E
:1008E0004C0480E496EA0E944C0487E496EC0E9453
:1008F0004C0480EA94E90E944C048CEA92EC0E9439
:100900004C0481E89AEC0E944C0484ED9EEC0E9419
:100910004C0483E894EC0E944C0480E598E90E9422
:100920004C0487E19CEC0E944C0480E090EE0E9415
:100930004C0480E098EC0E944C0480E490EC0E940F
:100940004C0408954A99FECF90E0805098440E944C
:100950004C04089552988AB1806B8AB908955F98C3
:100960005C9840E020E030E097FF02C05D9A01C053
:100970005D985F9A220F331F4E9921605F984F5FF9
:10098000403119F0880F991FEFCF5C9AC901089583
:1009900080E090E00E94AF0497FFFACF80E090EBF8
:1009A0000E94AF04089581E89AEC0E94AF0483E8A6
:1009B0009AEC0E94AF04089552988AB1806B8AB96C
:1009C00088ED90E80E94AF0489E992E80E94AF04A4
:1009D00080E496EA0E94AF0487E496EC0E94AF049C
:1009E00080EA94E90E94AF048CEA92EC0E94AF0482
:1009F00081E89AEC0E94AF0484ED9EEC0E94AF0463
:100A000083E894EC0E94AF0480E598E90E94AF046B
:100A100087E19CEC0E94AF0480E090EE0E94AF045E
:100A200080E098EC0E94AF0480E490EC0E94AF0458
:100A30000E94D3040895ACE0B0E0E1E2F5E00C944C
:100A4000F70569837A838B839C83CE010196BE016F
:100A50006B5F7F4F0E946F058D81823061F1823024
:100A600050F1843021F48E81882351F12EC02F81E2
:100A7000388537FD20C06E812F3131051CF066238B
:100A8000F9F023C08EE190E0821B930B29853A8513
:100A90004B855C8504C056954795379527958A9573
:100AA000D2F76623B1F050954095309521953F4F90
:100AB0004F4F5F4F0EC020E030E040E050E009C0F3
:100AC0002FEF3FEF4FEF5FE704C020E030E040E062
:100AD00050E8B901CA012C96E2E00C941306FC011F
:100AE000DB01408151812281622F6F7770E0221FEC
:100AF0002227221F9381892F880F822B282F30E0F5
:100B0000991F9927991F11969C93119721153105CB
:100B1000A9F5411551056105710511F482E037C051
:100B200082E89FEF13969C938E9312979A01AB01E4
:100B300067E0220F331F441F551F6A95D1F783E0EA
:100B40008C930DC0220F331F441F551F12968D9199
:100B50009C911397019713969C938E931297203034
:100B600080E0380780E0480780E4580758F314967F
:100B70002D933D934D935C93179708952F3F310527
:100B800079F4411551056105710519F484E08C93E0
:100B9000089564FF03C081E08C9312C01C9210C0C2
:100BA0002F57304013963C932E93129783E08C93EB
:100BB00087E0440F551F661F771F8A95D1F7706431
:100BC00014964D935D936D937C93179708952F9290
:100BD0003F924F925F926F927F928F929F92AF92CD
:100BE000BF92CF92DF92EF92FF920F931F93CF931A
:100BF000DF93CDB7DEB7CA1BDB0B0FB6F894DEBFB1
:100C00000FBECDBF09942A88398848885F846E84D6
:100C10007D848C849B84AA84B984C884DF80EE8020
:100C2000FD800C811B81AA81B981CE0FD11D0FB629
:100C3000F894DEBF0FBECDBFED010895A0E0B0E097
:100C4000E4E2F6E00C94F705FE01359661917191AE
:100C50008091A0019091A101AF010E9468062096A9
:100C6000E2E00C9413060F931F93CF93DF938C0154
:100C7000E091A001F091A101838181FF21C0C0E03A
:100C8000D0E00DC0E091A001F091A1012085318557
:100C9000BF01F9010995892B11F0CFEFDFEFF801C2
:100CA00081918F01882371F7E091A001F091A1015A
:100CB000208531858AE0BF01F9010995892B11F062
:100CC000CFEFDFEFCE01DF91CF911F910F9108950C
:100CD000ABE0B0E0EEE6F6E00C94E7053C012B015A
:100CE0005A01FC0117821682838181FD03C06FEFD8
:100CF0007FEFC6C19AE0892E1E010894211C311C89
:100D0000F3012381F20123FD859123FF81912F01BE
:100D1000882309F4B2C1853239F423FD859123FF7C
:100D200081912F01853229F490E0B3010E945B0884
:100D3000E7CF982FFF24EE249924FFE1FF15D0F090
:100D40009B3269F09C3228F4903259F0933291F43E
:100D50000EC09D3249F0903369F441E024C052E066
:100D6000F52A84E0F82A28C098E0F92A25C0E0E1B5
:100D7000FE2A22C0F7FC29C0892F80538A3070F4E4
:100D8000F6FE05C0989C902C1124980E15C0E89C86
:100D9000E02C1124E80EF0E2FF2A0EC09E3229F466
:100DA000F6FC6BC140E4F42A07C09C3619F450E805
:100DB000F52A02C0983649F4F20123FD959123FFEC
:100DC00091912F01992309F0B8CF892F8554833051
:100DD00018F08052833038F444E050E0A40EB51E81
:100DE0005FE359830FC0933631F0933779F0933531
:100DF00009F056C020C0F5018081898342E050E0AF
:100E0000A40EB51E610101E010E012C0F501C08022
:100E1000D180F6FC03C06FEF7FEF02C0692D70E058
:100E200042E050E0A40EB51EC6010E9450088C019D
:100E30005FE7F52214C0F501C080D180F6FC03C045
:100E40006FEF7FEF02C0692D70E042E050E0A40E2A
:100E5000B51EC6010E9445088C0150E8F52AF3FE34
:100E600007C01AC080E290E0B3010E945B08EA94D8
:100E70008E2D90E008171907A8F30EC0F601F7FCB5
:100E80008591F7FE81916F0190E0B3010E945B08AC
:100E9000E110EA94015010400115110579F7EAC0FC
:100EA000943611F0993669F5F7FE08C0F5012081F6
:100EB00031814281538184E090E00AC0F501808154
:100EC00091819C01442737FD4095542F82E090E0AA
:100ED000A80EB91E9FE6F92257FF09C0509540950C
:100EE000309521953F4F4F4F5F4FE0E8FE2ACA01F2
:100EF000B901A1012AE030E00E948708D82ED2185B
:100F000040C0953729F41F2D1F7E2AE030E01DC018
:100F10001F2D197F9F3661F0903720F4983509F026
:100F2000ACC00FC0903739F0983709F0A6C004C0A4
:100F300028E030E00AC0106114FD146020E130E0C8
:100F400004C014FD166020E132E017FF08C0F5016F
:100F5000608171818281938144E050E008C0F50195
:100F600080819181BC0180E090E042E050E0A40EDD
:100F7000B51EA1010E948708D82ED2188FE7F82E3F
:100F8000F122F6FE0BC05EEFF522D91438F4F4FE20
:100F900007C0F2FC05C08FEEF82202C01D2D01C073
:100FA000192DF4FE0DC0FE01ED0DF11D8081803381
:100FB00019F499EEF92208C01F5FF2FE05C003C0C4
:100FC0008F2D867809F01F5F0F2DF3FC14C0F0FE03
:100FD0000FC01E1510F09D2C0BC09D2C9E0C911A5D
:100FE0001E2D06C080E290E0B3010E945B081F5FE7
:100FF0001E15C0F304C01E1510F4E11A01C0EE2442
:1010000004FF0FC080E390E0B3010E945B0802FF81
:101010001DC001FD03C088E790E00EC088E590E0A8
:101020000BC0802F867891F001FF02C08BE201C0D7
:1010300080E2F7FC8DE290E0B3010E945B0806C0FD
:1010400080E390E0B3010E945B089A94D914C0F346
:10105000DA94F101ED0DF11D808190E0B3010E9461
:101060005B08DD20A9F706C080E290E0B3010E9492
:101070005B08EA94EE20C1F743CEF30166817781E5
:10108000CB012B96E2E10C940306FC010590615024
:1010900070400110D8F7809590958E0F9F1F08958E
:1010A000FC016150704001900110D8F78095909537
:1010B0008E0F9F1F08950F931F93CF93DF938C0183
:1010C000EB018B8181FF1BC082FF0DC02E813F8110
:1010D0008C819D812817390764F4E881F981019397
:1010E000F983E88306C0E885F985802F0995892B67
:1010F00031F48E819F8101969F838E8302C00FEF12
:101100001FEFC801DF91CF911F910F910895FA0150
:10111000AA27283051F1203181F1E8946F936E7F36
:101120006E5F7F4F8F4F9F4FAF4FB1E03ED0B4E027
:101130003CD0670F781F891F9A1FA11D680F791F68
:101140008A1F911DA11D6A0F711D811D911DA11D79
:1011500020D009F468943F912AE0269F1124301989
:10116000305D3193DEF6CF010895462F4770405D24
:101170004193B3E00FD0C9F7F6CF462F4F70405DD3
:101180004A3318F0495D31FD4052419302D0A9F72E
:10119000EACFB4E0A6959795879577956795BA9528
:1011A000C9F700976105710508959B01AC010A2EEE
:1011B00006945795479537952795BA95C9F7620FC5
:0E11C000731F841F951FA01D0895F894FFCF84
:1011CE005375636365737366756C6C7920696E69AC
:1011DE007469616C697365642E00FF526F6C6C3AB2
:1011EE002025642C2050697463683A2025642C20D5
:1011FE005961772076656C6F636974793A2025643E
:10120E000A0000000001000000000000CF020000F4
:0E121E000000000200000000BB020000000003
:00000001FF
