:100000000C94B5000C94D2000C94D2000C94D20045
:100010000C94F8020C94D2000C94D2000C94D200F0
:100020000C94D2000C94D2000C94D2000C94D20008
:100030000C94D2000C94D2000C9442010C94D20087
:100040000C94D2000C94D2000C94D2000C94D200E8
:100050000C94D2000C94D2000C94D2000C94D200D8
:100060000C94D2000C94D2006E616E00696E660032
:1000700000407A10F35A00A0724E18090010A5D45F
:10008000E80000E87648170000E40B54020000CABC
:100090009A3B000000E1F505000080969800000002
:1000A00040420F000000A086010000001027000061
:1000B0000000E803000000006400000000000A00E7
:1000C000000000000100000000002C76D888DC67EA
:1000D0004F0823DFC1DFAE59E1B1B796E5E3E45342
:1000E000C63AE651997696E8E6C28426EB898C9B5F
:1000F00062ED407C6FFCEFBC9C9F40F2BAA56FA5FF
:10010000F490055A2AF75C936B6CF9676DC11BFC80
:10011000E0E40D47FEF520E6B500D0ED902E03009B
:10012000943577050080841E080000204E0A0000E8
:1001300000C80C333333330F986E12831141EF8DA7
:100140002114893BE65516CFFEE6DB18D1844B38E7
:100150001BF77C1D901DA4BBE424203284725E2218
:100160008100C9F124ECA1E53D2711241FBECFEF8A
:10017000D8E0DEBFCDBF11E0A0E0B1E0ECECF6E1ED
:1001800002C005900D92AA36B107D9F711E0AAE690
:10019000B1E001C01D92A03BB107E1F70E94D4007D
:1001A0000C94640B0C940000AF92BF92CF92DF923C
:1001B000EF92FF920F931F930E94C30280E091E0A1
:1001C0000E94D10A0E94DF020E94E0040E946402A1
:1001D000789482E084BD93E095BD80936E0089EFB2
:1001E00087BD8BE091E00E94D10AAA24BB2465015F
:1001F000EE24FF24870180916A0190916B01A09108
:100200006C01B0916D018A199B09AC09BD09449735
:10021000A105B10584F08EE691E00E942C048EE6E3
:1002200091E00E94BB01A0906A01B0906B01C09068
:100230006C01D0906D0180916A0190916B01A09149
:100240006C01B0916D018E199F09A00BB10B8897BD
:10025000A105B10584F282E791E00E94D70182E70F
:1002600091E06EE771E00E9467028EE791E00E94E4
:100270008B04E0906A01F0906B0100916C01109189
:100280006D01B9CF1F920F920FB60F9211248F9369
:100290009F93AF93BF9380916A0190916B01A0915E
:1002A0006C01B0916D010196A11DB11D80936A0191
:1002B00090936B01A0936C01B0936D01BF91AF91CE
:1002C0009F918F910F900FBE0F901F9018950F93D5
:1002D0001F938C010E946B050E947405F8018083B6
:1002E0000E947405F80181830E947405F8018283DD
:1002F0000E947405F80183830E9467051F910F9186
:1003000008950F931F938C010E946B05F801808163
:100310000E946F05F80181810E946F05F8018281BA
:100320000E946F05F80183810E946F05F8018481A6
:100330000E946F05F80185810E946F05F801868192
:100340000E946F05F80187810E946F05F801808582
:100350000E946F05F80181850E946F05F801828572
:100360000E946F05F80183850E946F050E94670552
:100370001F910F9108950F931F938C0183EC0E949E
:100380006F058AE18A95F1F7F80180810E946F0577
:10039000F80181810E946F05F80182810E946F053A
:1003A000F80183810E946F051F910F910895CF92EC
:1003B000DF92EF92FF920F931F93CF93DF937C0115
:1003C0008AE50E946F051AE1812F8A95F1F780E096
:1003D0000E947B05D7018C93812F8A95F1F781E0EC
:1003E0000E947B05E7018983812F8A95F1F782E0DE
:1003F0000E947B05F7018283812F8A95F1F783E0C4
:100400000E947B05D70113968C931A95F1F767012B
:1004100014E00AE1812F0E947B058C83802F8A954E
:10042000F1F71F5F21961830A9F70AE1812F0E948A
:100430007B05E6018887802F8A95F1F71F5F089476
:10044000C11CD11C1C3091F7EDB7FEB73E970FB61B
:10045000F894FEBF0FBEEDBF319685E291E0ADB7D7
:10046000BEB712969C938E931197E701888199816C
:10047000AA81BB8182839383A483B5838C819D8170
:10048000AE81BF8186839783A087B1878885998550
:10049000AA85BB8582879387A487B5870E94BC0AFB
:1004A000EDB7FEB73E960FB6F894FEBF0FBEEDBF98
:1004B000DF91CF911F910F91FF90EF90DF90CF9040
:1004C00008950E94590508950E9454050895CF93F8
:1004D000DF93FC0180819181A281B381EB0188834C
:1004E0009983AA83BB8384819581A681B7818C83FC
:1004F0009D83AE83BF8380859185A285B385FB01F3
:1005000080879187A287B387DF91CF910895CF939A
:10051000DF93FC0180819181A281B381EB0188830B
:100520009983AA83BB8384819581A681B7818C83BB
:100530009D83AE83BF8380859185A285B385FB01B2
:1005400080879187A287B387DF91CF9108951F930A
:10055000182F8A3019F48DE00E94A7028091C00004
:1005600085FFFCCF1093C600212F332727FD309540
:10057000C9011F9108958091C00087FFFCCF809131
:10058000C60090E008951092C50080E18093C400F9
:1005900088E18093C10086E08093C2008AE591E003
:1005A0009093AD018093AC019093AF018093AE0125
:1005B0008CE491E09093AB018093AA010895E1E867
:1005C000F0E0808183608083109285001092840027
:1005D00087B1807F87B98FE088B9E8E6F0E0808155
:1005E00082608083ECE6F0E080818F6080830895F4
:1005F0001F920F920FB60F9211242F933F934F9398
:100600008F939F939091680186B18927482F80FF2F
:1006100044C08091840090918500909393018093D1
:10062000920120919A0130919B01809192019091C9
:1006300093018217930768F480919A0190919B012E
:10064000209192013091930180959095820F931F94
:100650000AC0809192019091930120919A0130916A
:100660009B01821B930B90938B0180938A01809155
:1006700084009091850090939B0180939A018091D2
:10068000680180FF0AC080918A0190918B018F5987
:1006900091409093A3018093A20141FF44C08091B7
:1006A000840090918500909395018093940120910E
:1006B0009C0130919D018091940190919501821748
:1006C000930768F480919C0190919D012091940181
:1006D0003091950180959095820F931F0AC080916B
:1006E00094019091950120919C0130919D01821B74
:1006F000930B90938D0180938C0180918400909155
:10070000850090939D0180939C018091680181FFF9
:100710000AC080918C0190918D018F5991409093E6
:10072000A5018093A40142FF44C080918400909170
:100730008500909397018093960120919E013091BE
:100740009F0180919601909197018217930768F419
:1007500080919E0190919F01209196013091970187
:1007600080959095820F931F0AC080919601909179
:10077000970120919E0130919F01821B930B9093D2
:100780008F0180938E0180918400909185009093D9
:100790009F0180939E018091680182FF0AC0809131
:1007A0008E0190918F018F5991409093A701809372
:1007B000A60143FF44C080918400909185009093EE
:1007C0009901809398012091A0013091A10180911D
:1007D0009801909199018217930768F48091A00184
:1007E0009091A10120919801309199018095909567
:1007F000820F931F0AC080919801909199012091D6
:10080000A0013091A101821B930B909391018093E1
:10081000900180918400909185009093A101809334
:10082000A0018091680183FF0AC08091900190919E
:1008300091018F5991409093A9018093A80186B1AD
:10084000809368019F918F914F913F912F910F90CD
:100850000FBE0F901F901895FC018091A2019091FE
:10086000A30180838091A4019091A501818380914F
:10087000A6019091A70182838091A8019091A9017E
:1008800083830895CF92DF92EF92FF920F931F938D
:10089000FC01408351836283738304831583268321
:1008A0003783C086D186E286F3861F910F91FF9031
:1008B000EF90DF90CF900895FF920F931F93CF9307
:1008C000DF938C01C0E0D0E00E940105F801EC0F3D
:1008D000FD1F80832196C430D105B1F7E801FF24C4
:1008E0000E9401058C83F394219684E0F816C1F7E9
:1008F000FF240E940105F8018087F3940F5F1F4FCA
:10090000F4E0FF16B1F70E940C05DF91CF911F9123
:100910000F91FF9008950F931F938C0180E090E05A
:100920000E9486058AEA0E94DC058AEA0E94DC05AC
:100930008AEA0E94DC058DE20E94DC0584ED0E94BB
:10094000DC05F80180810E94DC05F80181810E94AC
:10095000DC05F80182810E94DC05F80183810E9498
:10096000DC05F80184810E94DC05F80185810E9484
:10097000DC05F80186810E94DC05F80187810E9470
:10098000DC05F80180850E94DC05F80181850E9464
:10099000DC05F80182850E94DC05F80183850E9450
:1009A000DC058AEA0E94DC058AEA0E94DC058AEA04
:1009B0000E94DC051F910F9108950E94150508956E
:1009C0000E949F05089552988AB1806B8AB9089554
:1009D0005F985C9840E020E030E097FF02C05D9AAD
:1009E00001C05D985F9A220F331F4E9921605F9876
:1009F0004F5F403119F0880F991FEFCF5C9AC90102
:100A0000089580E090E00E94E80497FFFACF80E02C
:100A100090EB0E94E804089581E89AEC0E94E804B3
:100A200083E89AEC0E94E804089552988AB1806B9A
:100A30008AB988ED90E80E94E80489E992E80E946A
:100A4000E80480E496EA0E94E80487E496EC0E94B9
:100A5000E80480EA94E90E94E8048CEA92EC0E949F
:100A6000E80481E89AEC0E94E80484ED9EEC0E9480
:100A7000E80483E894EC0E94E80480E598E90E9489
:100A8000E80487E19CEC0E94E80480E090EE0E947C
:100A9000E80480E098EC0E94E80480E490EC0E9476
:100AA000E8040E940C0508958CE284B981E58CBDB0
:100AB000089580E184B980E48CBD8CB580688CBDDC
:100AC000789408958CB580688CBD789408958CB521
:100AD00080688CBD08958CB58F778CBD08958EBDD0
:100AE0000DB407FEFDCF08950DB407FEFDCF8EB502
:100AF00008958EB508958EBD0DB407FEFDCF8EB559
:100B0000089552988AB1806B8AB908955F985C986D
:100B100040E020E030E097FF02C05D9A01C05D98A0
:100B20005F9A220F331F4E9921605F984F5F4031CB
:100B300019F0880F991FEFCF5C9AC9010895529858
:100B40008AB1806B8AB988ED90E80E94860589E3B6
:100B500092E80E94860580E496EA0E94860587E472
:100B600096EC0E94860580EA94E90E9486058CEA4C
:100B700092EC0E94860581E89AEC0E94860584ED3D
:100B80009EEC0E94860583E894EC0E94860580E531
:100B900098E90E94860587E19CEC0E94860580E02A
:100BA00090EE0E94860580E098EC0E94860580E425
:100BB00090EC0E94860508954A99FECF90E08050FF
:100BC00098440E9486050895A1E1B0E0EAEEF5E0C0
:100BD0000C946B093C017F876E876A01FC011782C8
:100BE0001682838181FD03C06FEF7FEF6FC39E018B
:100BF0002F5F3F4F398B288BF3012381EE85FF85D3
:100C000023FD859123FF8191FF87EE87882309F4D7
:100C10005AC3853251F4EE85FF8523FD859123FF6C
:100C20008191FF87EE87853229F490E0B3010E941D
:100C3000900AE2CF982F10E0882499241032B0F463
:100C40009B3269F09C3228F4903251F0933271F467
:100C50000BC09D3239F0903349F4116028C0126006
:100C6000146025C0186023C0106121C017FD2AC080
:100C7000892F80538A3078F416FF06C0FAE09F9ED1
:100C8000902C1124980E13C03AE0839E802C1124DE
:100C9000880E10620CC09E3221F416FD14C310643D
:100CA00006C09C3611F4106802C0983659F4EE85DF
:100CB000FF8523FD959123FF9191FF87EE8799236F
:100CC00009F0BCCF892F8554833020F4812F8061B7
:100CD000905E07C0892F8556833008F09FC1812F11
:100CE0008F7E86FD02C076E0972E6FE3F62EF82207
:100CF000953619F4F0E4FF2A07C0963619F420E877
:100D0000F22A02C091109A94F7FE0AC03BE339150B
:100D100018F45CE3B52E02C0B92CB39427E009C0E7
:100D200047E0491520F4BB2447E0942EF7CF292D46
:100D3000BB24C60104969D878C87F6016081718172
:100D400082819381AE014F5F5F4F0B2D0E94A209FC
:100D50006C010981202E332400FF04C003FD02C072
:100D60001DE209C0F1FE02C01BE205C0F2FC02C098
:100D700010E001C010E2C1018C709070892BB9F1B4
:100D8000112311F483E001C084E0881510F0882459
:100D90000AC0881AF3FC07C080E290E0B3010E9409
:100DA000900A8A94C9F7112329F0812F90E0B301AA
:100DB0000E94900A23FE03C008E610E00EC00CE675
:100DC00010E00BC0E114F10409F0805290E0B3018F
:100DD0000E94900A0F5F1F4F05C0EF2CFF24F0E127
:100DE000EF22FF24F8018491882361F714C1F7FEF4
:100DF00012C0BC0C24FE04C08A81813309F4BA9469
:100E00001B141CF0BB24B3942DC0F8E0FB1550F567
:100E100038E0B32E27C0F6FC25C0892D90E08C1554
:100E20009D054CF02CEFC2162FEFD20624F030E8CF
:100E3000F32A01C09A94992049F0E2E0F0E0EC0F27
:100E4000FD1FE90DF11D80818033A1F3F7FE0AC07B
:100E5000B92CB394892D90E0C816D90614F09924C2
:100E600001C09C18F7FC03C025E030E009C01C1449
:100E70001D041CF021E030E003C096012F5F3F4FBE
:100E8000112311F02F5F3F4F992029F0892D90E019
:100E90000196280F391F882D90E02817390714F084
:100EA000882401C0821A4F2C5524C2018970907089
:100EB000892B39F008C080E290E0B3010E94900ACB
:100EC0008A948820C1F7112329F0812F90E0B30183
:100ED0000E94900A43FE07C008C080E390E0B3017F
:100EE0000E94900A8A948820C1F7F7FE46C08601C6
:100EF000D7FE02C000E010E076010894E11CF11C6E
:100F0000E01AF10A41E050E04C0F5D1FE40EF51EBF
:100F100026014B185108892D90E0AA24BB24A81A59
:100F2000B90A5FEF0F3F150729F48EE290E0B30195
:100F30000E94900AC016D10634F0401651061CF4E7
:100F4000F701808101C080E3015010400894E11C4A
:100F5000F11C0A151B052CF090E0B3010E94900AC9
:100F6000E0CF0C151D0539F49A81963318F49533AA
:100F700011F424FE81E390E04BC08A81813309F0B3
:100F80000F7E90E0B3010E94900A9920A1F08EE2BA
:100F900090E0B3010E94900A12E0E1E0F0E0EC0F73
:100FA000FD1FE10FF11D1F5F808190E0B3010E94E2
:100FB000900A9A9491F744FC03C085E690E002C041
:100FC00085E490E0B3010E94900AD7FC05C0C114EB
:100FD000D10441F404FF06C0D094C194D108D39445
:100FE0008DE201C08BE290E0B3010E94900A80E3A1
:100FF00005C08F5F26EF3FEFC20ED31E3AE0C31647
:10100000D104BCF790E0B3010E94900AC601C096DB
:10101000B3010E94900ACC84DD8452C1933631F032
:10102000933799F0933509F059C023C0F6018081B8
:1010300089835E010894A11CB11C22E030E0C20E3D
:10104000D31E21E0E22EF12C12C0F601A080B18067
:1010500016FD03C06FEF7FEF02C0692D70E022E044
:1010600030E0C20ED31EC5010E94850A7C011F77A5
:1010700013C0F601A080B18016FD03C06FEF7FEFB3
:1010800002C0692D70E022E030E0C20ED31EC5011F
:101090000E947A0A7C01106813FF07C01BC080E21F
:1010A00090E0B3010E94900A8A94882D90E0E8169F
:1010B000F906A8F30FC0F50117FD859117FF81917F
:1010C0005F0190E0B3010E94900A81108A94089415
:1010D000E108F108E114F10471F7F2C0943611F05F
:1010E000993689F517FF08C0F601208131814281C8
:1010F000538184E090E00AC0F601808191819C01D7
:10110000442737FD4095542F82E090E0C80ED91E49
:101110009FE6F92EF12257FF09C050954095309572
:1011200021953F4F4F4F5F4F90E8F92ACA01B9010F
:10113000AE014F5F5F4F2AE030E00E94060BE82EC1
:10114000E889EE1A41C0953721F41F7E2AE030E08D
:101150001CC0197F9F3661F0903720F4983509F054
:10116000B2C00FC0903739F0983709F0ACC004C056
:1011700028E030E00AC0106114FD146020E130E086
:1011800004C014FD166020E132E017FF08C0F6012C
:10119000608171818281938144E050E008C0F60152
:1011A00080819181BC0180E090E042E050E0C40E7B
:1011B000D51EAE014F5F5F4F0E94060BE82E588987
:1011C000E51A8FE7F82EF122F6FE0BC08EEFF8221B
:1011D000E91438F4F4FE07C0F2FC05C09FEEF922D2
:1011E00002C01E2D01C0192DF4FE0DC0FE01EE0D32
:1011F000F11D8081803319F4E9EEFE2208C01F5FE3
:10120000F2FE05C003C08F2D867809F01F5F0F2DF9
:10121000F3FC14C0F0FE0FC0181510F09E2C0BC08C
:101220009E2C980C911A182D06C080E290E0B30114
:101230000E94900A1F5F1815C0F304C0181510F41F
:10124000811A01C0882404FF0FC080E390E0B3013D
:101250000E94900A02FF1DC001FD03C088E790E0D4
:101260000EC088E590E00BC0802F867891F001FFDA
:1012700002C08BE201C080E2F7FC8DE290E0B30196
:101280000E94900A06C080E390E0B3010E94900A99
:101290009A94E914C0F3EA94E1E0F0E0EC0FFD1F4A
:1012A000EE0DF11D808190E0B3010E94900AEE20C6
:1012B00091F706C080E290E0B3010E94900A8A9400
:1012C0008820C1F799CCF30166817781CB016196C3
:1012D000E2E10C9487092F923F924F925F926F92B6
:1012E0007F928F929F92AF92BF92CF92DF92EF92B6
:1012F000FF920F931F93CF93DF93CDB7DEB7CA1B37
:10130000DB0B0FB6F894DEBF0FBECDBF09942A8861
:10131000398848885F846E847D848C849B84AA8409
:10132000B984C884DF80EE80FD800C811B81AA8196
:10133000B981CE0FD11D0FB6F894DEBF0FBECDBF61
:10134000ED010895283008F027E03327DA01990FDE
:10135000311D87FD916000966105710539F4326099
:101360002E5F3D9330E32A95E1F708959F3F30F0DB
:1013700080387105610509F03C5F3C5F3D93913019
:1013800008F08068911DDF93CF931F930F93FF9216
:10139000EF92192F987F9695E92F96959695E90FDC
:1013A000FF27E653FF4F99273327EE24FF24A70199
:1013B000E70105900894079428F4360FE71EF81EFD
:1013C000491F511D660F771F881F991F0694A1F7AB
:1013D0000590079428F4E70EF81E491F561FC11DFB
:1013E000770F881F991F661F0694A1F70590079431
:1013F00028F4F80E491F561FC71FD11D880F991FCB
:10140000661F771F0694A1F70590079420F4490FF3
:10141000561FC71FD81F990F661F771F881F069476
:10142000A9F784911095177041F0D695C7955795F7
:101430004795F794E7941A95C1F7E0E7F0E06894D0
:101440001590159135916591959105907FE2739571
:10145000E118F10A430B560BC90BD009C0F7E10C98
:10146000F11E431F561FC91FD01D7EF4703311F4A7
:101470008A95E6CFE894015030F0080F0AF400276F
:10148000021708F4202F2395022F7A3328F079E3EE
:101490007D932A95E9F710C07D932A9589F60694E5
:1014A00097956795379517951794E118F10A430BAF
:1014B000560BC90BD00998F023957E9173957A331A
:1014C00008F070E37C932013B8F77E9170617D93F0
:1014D00030F0839571E37D9370E32A95E1F7112451
:1014E000EF90FF900F911F91CF91DF91992787FD8A
:1014F00090950895FC010590615070400110D8F757
:10150000809590958E0F9F1F0895FC01615070404B
:1015100001900110D8F7809590958E0F9F1F089528
:101520000F931F93CF93DF938C01EB018B8181FF8E
:101530001BC082FF0DC02E813F818C819D812817A9
:10154000390764F4E881F9810193F983E88306C0DF
:10155000E885F985802F0995892B31F48E819F814B
:1015600001969F838E8302C00FEF1FEFC801DF91AA
:10157000CF911F910F910895A0E0B0E0E2ECFAE066
:101580000C947B09FE013596619171918091AC01BB
:101590009091AD01AF010E94E4052096E2E00C9429
:1015A00097090F931F93CF93DF938C01E091AC01C8
:1015B000F091AD01838181FF21C0C0E0D0E00DC07A
:1015C000E091AC01F091AD0120853185BF01F901B9
:1015D0000995892B11F0CFEFDFEFF80181918F0191
:1015E000882371F7E091AC01F091AD012085318540
:1015F0008AE0BF01F9010995892B11F0CFEFDFEFE8
:10160000CE01DF91CF911F910F910895FA01AA2782
:10161000283051F1203181F1E8946F936E7F6E5F35
:101620007F4F8F4F9F4FAF4FB1E03ED0B4E03CD0E3
:10163000670F781F891F9A1FA11D680F791F8A1FC6
:10164000911DA11D6A0F711D811D911DA11D20D02D
:1016500009F468943F912AE0269F11243019305DE7
:101660003193DEF6CF010895462F4770405D4193D8
:10167000B3E00FD0C9F7F6CF462F4F70405D4A3325
:1016800018F0495D31FD4052419302D0A9F7EACFED
:10169000B4E0A6959795879577956795BA95C9F71C
:1016A00000976105710508959B01AC010A2E06940F
:1016B0005795479537952795BA95C9F7620F731FC8
:0C16C000841F951FA01D0895F894FFCF13
:1016CC0048454C4F4F3F3F3F3F2E0053756363657A
:1016DC00737366756C6C7920696E697469616C6979
:1016EC007365642E00526F6C6C3A2025662C20506A
:1016FC00697463683A2025662C20596177207665D9
:10170C006C6F636974793A2025660A000000000149
:10171C00000000000000BB020000000000020000FE
:0A172C000000A70200000000FF000B
:00000001FF
