:100000000C943E000C945B000C945B000C945B0021
:100010000C945B000C94BF000C945B000C945B0090
:100020000C945B000C945B000C945B000C945B00E4
:100030000C945B000C945B000C945B000C945B00D4
:100040000C945B000C945B000C945B000C945B00C4
:100050000C945B000C945B000C945B000C945B00B4
:100060000C945B000C945B000C945B000C945B00A4
:100070000C945B000C945B000C945B0011241FBE7D
:10008000CFEFD0E1DEBFCDBF11E0A0E0B1E0EAE705
:10009000F8E002C005900D92AA34B107D9F711E03B
:1000A000AAE4B1E001C01D92AC35B107E1F70E94AE
:1000B000B0000C943B040C9400001F93182F8A305E
:1000C00019F48DE00E945D008091C00085FFFCCF97
:1000D0001093C600212F332727FD3095C9011F91AA
:1000E00008958091C00087FFFCCF8091C60090E00A
:1000F00008951092C5008DE48093C40088E1809338
:10010000C10086E08093C2008BE391E09093590197
:100110008093580190935B0180935A018DE291E0A6
:1001200090935701809356010895E1E8F0E08081B3
:10013000826080831092850010928400089587B1B8
:10014000807F87B983E088B9E8E6F0E0808182604B
:100150008083ECE6F0E0808183608083789408956A
:10016000259A8091810082608093810010928500A1
:10017000109284000E949F000E947900FFCF1F927E
:100180000F920FB60F9211241F932F933F934F930B
:100190005F936F937F938F939F93AF93BF93EF93EF
:1001A000FF9385B190E2892785B916B180912C0122
:1001B000182700D080E091E0EDB7FEB792838183ED
:1001C0000E9472010F900F9010FF37C020918400A1
:1001D0003091850030934D0120934C018091500166
:1001E000909151012817390748F480959095820F16
:1001F000931F90934B0180934A0106C0281B390B33
:1002000030934B0120934A018091840090918500A6
:10021000909351018093500180912C0180FF4DC03B
:1002200000D000D084E091E0EDB7FEB792838183E7
:1002300080914A0190914B0138C011FF3EC020913E
:1002400084003091850030934F0120934E018091BE
:100250005201909153012817390748F480959095E1
:10026000820F931F909355018093540106C0281B61
:10027000390B309355012093540180918400909163
:100280008500909353018093520180912C0181FF4E
:1002900014C000D000D088E191E0EDB7FEB79283A2
:1002A00081838091540190915501948383830E94AE
:1002B00072010F900F900F900F9086B180932C01D8
:1002C000FF91EF91BF91AF919F918F917F916F912E
:1002D0005F914F913F912F911F910F900FBE0F9003
:1002E0001F901895A0E0B0E0E8E7F1E00C9414044A
:1002F000FE0135966191719180915801909159015B
:10030000AF010E9487012096E2E00C943004ABE03C
:10031000B0E0EDE8F1E00C9404043C012B015A013B
:10032000FC0117821682838181FD03C06FEF7FEF8E
:10033000C6C19AE0892E1E010894211C311CF301CC
:100340002381F20123FD859123FF81912F018823D1
:1003500009F4B2C1853239F423FD859123FF8191DF
:100360002F01853229F490E0B3010E947A03E7CF90
:10037000982FFF24EE249924FFE1FF15D0F09B3243
:1003800069F09C3228F4903259F0933291F40EC007
:100390009D3249F0903369F441E024C052E0F52ADF
:1003A00084E0F82A28C098E0F92A25C0E0E1FE2A76
:1003B00022C0F7FC29C0892F80538A3070F4F6FEE2
:1003C00005C0989C902C1124980E15C0E89CE02C38
:1003D0001124E80EF0E2FF2A0EC09E3229F4F6FC4A
:1003E0006BC140E4F42A07C09C3619F450E8F52AA2
:1003F00002C0983649F4F20123FD959123FF9191B3
:100400002F01992309F0B8CF892F8554833018F034
:100410008052833038F444E050E0A40EB51E5FE310
:1004200059830FC0933631F0933779F0933509F043
:1004300056C020C0F5018081898342E050E0A40EBF
:10044000B51E610101E010E012C0F501C080D1804D
:10045000F6FC03C06FEF7FEF02C0692D70E042E051
:1004600050E0A40EB51EC6010E946F038C015FE729
:10047000F52214C0F501C080D180F6FC03C06FEFF7
:100480007FEF02C0692D70E042E050E0A40EB51E7F
:10049000C6010E9464038C0150E8F52AF3FE07C0F0
:1004A0001AC080E290E0B3010E947A03EA948E2D94
:1004B00090E008171907A8F30EC0F601F7FC859124
:1004C000F7FE81916F0190E0B3010E947A03E11081
:1004D000EA94015010400115110579F7EAC09436ED
:1004E00011F0993669F5F7FE08C0F50120813181D8
:1004F0004281538184E090E00AC0F50180819181BE
:100500009C01442737FD4095542F82E090E0A80ECF
:10051000B91E9FE6F92257FF09C0509540953095C6
:1005200021953F4F4F4F5F4FE0E8FE2ACA01B901C6
:10053000A1012AE030E00E94A603D82ED21840C0C4
:10054000953729F41F2D1F7E2AE030E01DC01F2D96
:10055000197F9F3661F0903720F4983509F0ACC0D0
:100560000FC0903739F0983709F0A6C004C028E0D2
:1005700030E00AC0106114FD146020E130E004C0D6
:1005800014FD166020E132E017FF08C0F50160811C
:1005900071818281938144E050E008C0F50180813F
:1005A0009181BC0180E090E042E050E0A40EB51ED5
:1005B000A1010E94A603D82ED2188FE7F82EF122AF
:1005C000F6FE0BC05EEFF522D91438F4F4FE07C036
:1005D000F2FC05C08FEEF82202C01D2D01C0192DBE
:1005E000F4FE0DC0FE01ED0DF11D8081803319F484
:1005F00099EEF92208C01F5FF2FE05C003C08F2DDF
:10060000867809F01F5F0F2DF3FC14C0F0FE0FC0B9
:100610001E1510F09D2C0BC09D2C9E0C911A1E2DAA
:1006200006C080E290E0B3010E947A031F5F1E15AE
:10063000C0F304C01E1510F4E11A01C0EE2404FF3B
:100640000FC080E390E0B3010E947A0302FF1DC057
:1006500001FD03C088E790E00EC088E590E00BC084
:10066000802F867891F001FF02C08BE201C080E20A
:10067000F7FC8DE290E0B3010E947A0306C080E3AC
:1006800090E0B3010E947A039A94D914C0F3DA94EB
:10069000F101ED0DF11D808190E0B3010E947A031C
:1006A000DD20A9F706C080E290E0B3010E947A0342
:1006B000EA94EE20C1F743CEF30166817781CB0146
:1006C0002B96E2E10C942004FC01059061507040EF
:1006D0000110D8F7809590958E0F9F1F0895FC010B
:1006E0006150704001900110D8F7809590958E0F61
:1006F0009F1F08950F931F93CF93DF938C01EB01FE
:100700008B8181FF1BC082FF0DC02E813F818C81B8
:100710009D812817390764F4E881F9810193F983F1
:10072000E88306C0E885F985802F0995892B31F487
:100730008E819F8101969F838E8302C00FEF1FEFF2
:10074000C801DF91CF911F910F910895FA01AA2757
:10075000283051F1203181F1E8946F936E7F6E5F04
:100760007F4F8F4F9F4FAF4FB1E03ED0B4E03CD0B2
:10077000670F781F891F9A1FA11D680F791F8A1F95
:10078000911DA11D6A0F711D811D911DA11D20D0FC
:1007900009F468943F912AE0269F11243019305DB6
:1007A0003193DEF6CF010895462F4770405D4193A7
:1007B000B3E00FD0C9F7F6CF462F4F70405D4A33F4
:1007C00018F0495D31FD4052419302D0A9F7EACFBC
:1007D000B4E0A6959795879577956795BA95C9F7EB
:1007E00000976105710508959B01AC010A2E0694DE
:1007F0005795479537952795BA95C9F7620F731F97
:10080000841F951FA01D08952F923F924F925F92D3
:100810006F927F928F929F92AF92BF92CF92DF9210
:10082000EF92FF920F931F93CF93DF93CDB7DEB775
:10083000CA1BDB0B0FB6F894DEBF0FBECDBF099409
:100840002A88398848885F846E847D848C849B8460
:10085000AA84B984C884DF80EE80FD800C811B816E
:10086000AA81B981CE0FD11D0FB6F894DEBF0FBE9D
:0A087000CDBFED010895F894FFCF0D
:10087A004C4F4C005043302064757479206379637F
:10088A006C653A2025640A005043312064757479F6
:10089A00206379636C653A2025640A00FF00000032
:1008AA0001000000000000710000000000000200CA
:0A08BA000000005D000000000000D7
:00000001FF
