:100000000C943E000C9448000C9448000C9448005A
:100010000C9448000C9448000C9448000C94480040
:100020000C9448000C9448000C9448000C94480030
:100030000C9448000C9448000C9448000C94480020
:100040000C9448000C9448000C9448000C94480010
:100050000C9448000C9448000C9448000C94480000
:100060000C9448000C9448000C9448000C944800F0
:100070000C9448000C9448000C94480011241FBEB6
:10008000CFEFD0E1DEBFCDBF0E944A000C948800C4
:100090000C940000CF93DF9384B18F6084B940EE5D
:1000A0005EE224E931E1C2E8D4E1A6EABEE0E0E79D
:1000B000F7E168EB7BE0CA010197F1F7289AC901E3
:1000C0000197F1F72898C9010197F1F7CA01019743
:1000D000F1F7299AC9010197F1F72998C901019708
:1000E000F1F7CA010197F1F72A9ACE010197F1F7CA
:1000F0002A98CD010197F1F7CA010197F1F72B9AE0
:10010000CF010197F1F72B98CB010197F1F7D3CFEE
:04011000F894FFCF91
:00000001FF
